{
  "contractName": "Attributes",
  "abi": [
    {
      "constant": true,
      "inputs": [],
      "name": "REGISTRY_TYPE",
      "outputs": [
        {
          "name": "",
          "type": "bytes32"
        }
      ],
      "payable": false,
      "stateMutability": "view",
      "type": "function"
    },
    {
      "constant": true,
      "inputs": [],
      "name": "VERIFICATION_TYPE",
      "outputs": [
        {
          "name": "",
          "type": "bytes32"
        }
      ],
      "payable": false,
      "stateMutability": "view",
      "type": "function"
    }
  ],
  "bytecode": "0x608060405234801561001057600080fd5b5060f78061001f6000396000f30060806040526004361060485763ffffffff7c01000000000000000000000000000000000000000000000000000000006000350416632f6968c08114604d578063d916d4e2146071575b600080fd5b348015605857600080fd5b50605f6083565b60408051918252519081900360200190f35b348015607c57600080fd5b50605f60a7565b7f72656769737472792e747970650000000000000000000000000000000000000081565b7f766572696669636174696f6e2e74797065000000000000000000000000000000815600a165627a7a723058202af6c17128eed69fd1b27fa5ab77b6f875fe442176c19f239570ffa0262d9fa50029",
  "source": "pragma solidity ^0.4.24;\n/*\n * @title: Attributes\n * Attributes supposed for Registry to define the Registry type\n * and describe processes of verification used by this registry.\n * Created on 2018-04-26, by Blockchain Labs, NZ\n */\n\n\ncontract Attributes {\n  /*\n   * @dev: Every registry should have these specific registry attributes:\n   */\n  bytes32 public constant REGISTRY_TYPE = \"registry.type\";            // e.g.: Exchange, Government, Portal, ...\n  bytes32 public constant VERIFICATION_TYPE = \"verification.type\";    // e.g.: KYC, Deposit, MinimumAmount, ...\n}",
  "sourcePath": "/Users/pengliu/work/bankorus_sto/VerifiedToken-master/contracts/Attributes.sol",
  "compiler": {
    "name": "solc",
    "version": "0.4.24+commit.e67f0147.Emscripten.clang"
  },
  "schemaVersion": "3.0.0",
  "updatedAt": "2019-01-08T06:37:39.675Z",
  "devdoc": {
    "methods": {}
  },
  "userdoc": {
    "methods": {}
  }
}