{
  "contractName": "Operator",
  "abi": [
    {
      "constant": false,
      "inputs": [],
      "name": "renounceOwnership",
      "outputs": [],
      "payable": false,
      "stateMutability": "nonpayable",
      "type": "function"
    },
    {
      "constant": true,
      "inputs": [],
      "name": "owner",
      "outputs": [
        {
          "name": "",
          "type": "address"
        }
      ],
      "payable": false,
      "stateMutability": "view",
      "type": "function"
    },
    {
      "constant": false,
      "inputs": [
        {
          "name": "_newOwner",
          "type": "address"
        }
      ],
      "name": "transferOwnership",
      "outputs": [],
      "payable": false,
      "stateMutability": "nonpayable",
      "type": "function"
    },
    {
      "anonymous": false,
      "inputs": [
        {
          "indexed": true,
          "name": "operator",
          "type": "address"
        },
        {
          "indexed": true,
          "name": "status",
          "type": "bool"
        },
        {
          "indexed": false,
          "name": "updatedAt",
          "type": "uint256"
        }
      ],
      "name": "OperatorStatusUpdated",
      "type": "event"
    },
    {
      "anonymous": false,
      "inputs": [
        {
          "indexed": true,
          "name": "previousOwner",
          "type": "address"
        }
      ],
      "name": "OwnershipRenounced",
      "type": "event"
    },
    {
      "anonymous": false,
      "inputs": [
        {
          "indexed": true,
          "name": "previousOwner",
          "type": "address"
        },
        {
          "indexed": true,
          "name": "newOwner",
          "type": "address"
        }
      ],
      "name": "OwnershipTransferred",
      "type": "event"
    },
    {
      "constant": false,
      "inputs": [
        {
          "name": "_operator",
          "type": "address"
        },
        {
          "name": "_status",
          "type": "bool"
        }
      ],
      "name": "updateOperator",
      "outputs": [],
      "payable": false,
      "stateMutability": "nonpayable",
      "type": "function"
    },
    {
      "constant": true,
      "inputs": [
        {
          "name": "_address",
          "type": "address"
        }
      ],
      "name": "isOperator",
      "outputs": [
        {
          "name": "",
          "type": "bool"
        }
      ],
      "payable": false,
      "stateMutability": "view",
      "type": "function"
    }
  ],
  "bytecode": "0x608060405260008054600160a060020a03191633179055610313806100256000396000f30060806040526004361061006c5763ffffffff7c01000000000000000000000000000000000000000000000000000000006000350416636d44a3b281146100715780636d70f7ae14610099578063715018a6146100ce5780638da5cb5b146100e3578063f2fde38b14610114575b600080fd5b34801561007d57600080fd5b50610097600160a060020a03600435166024351515610135565b005b3480156100a557600080fd5b506100ba600160a060020a03600435166101ae565b604080519115158252519081900360200190f35b3480156100da57600080fd5b506100976101cc565b3480156100ef57600080fd5b506100f8610238565b60408051600160a060020a039092168252519081900360200190f35b34801561012057600080fd5b50610097600160a060020a0360043516610247565b600054600160a060020a0316331461014c57600080fd5b600160a060020a038216600081815260016020908152604091829020805460ff1916851515908117909155825142815292519093927f1490bf5846abf8a5f02ba05428324b614a1be3b07a78f2feb69e0f7841aea90592908290030190a35050565b600160a060020a031660009081526001602052604090205460ff1690565b600054600160a060020a031633146101e357600080fd5b60008054604051600160a060020a03909116917ff8df31144d9c2f0f6b59d69b8b98abd5459d07f2742c4df920b25aae33c6482091a26000805473ffffffffffffffffffffffffffffffffffffffff19169055565b600054600160a060020a031681565b600054600160a060020a0316331461025e57600080fd5b6102678161026a565b50565b600160a060020a038116151561027f57600080fd5b60008054604051600160a060020a03808516939216917f8be0079c531659141344cd1fd0a4f28419497f9722a3daafe3b4186f6b6457e091a36000805473ffffffffffffffffffffffffffffffffffffffff1916600160a060020a03929092169190911790555600a165627a7a72305820ba56e78146fe6390b54901a20d30f10d82cd53e993b1fa4f952bfad843edc80a0029",
  "source": "pragma solidity ^0.4.24;\n/*\n * @title: Operator\n * Management of registry operators\n * CRUD + events\n * Created on 2018-04-26, by Blockchain Labs, NZ\n */\nimport \"openzeppelin-solidity/contracts/ownership/Ownable.sol\";\n\n\ncontract Operator is Ownable {\n\t/*\n   * @notice: List of operators and their status\n   */\n  mapping(address => bool) private operators;\n\n  event OperatorStatusUpdated(\n    address indexed operator,\n    bool indexed status,\n    uint updatedAt\n  );\n\n  modifier onlyOperator() {\n    require(isOperator(msg.sender));\n    _;\n  }\n\n\t/*\n   * @notice: Update the operators and their status\n   */\n  function updateOperator(address _operator, bool _status) public onlyOwner {\n    operators[_operator] = _status;\n    emit OperatorStatusUpdated(_operator, _status, now);\n  }\n\n\t/*\n   * @notice: Check if address is listed as an operator (status == true)\n   */\n  function isOperator(address _address) public view returns (bool) {\n    return operators[_address];\n  }\n}\n",
  "sourcePath": "/Users/pengliu/work/bankorus_sto/VerifiedToken-master/contracts/Operator.sol",
  "compiler": {
    "name": "solc",
    "version": "0.4.24+commit.e67f0147.Emscripten.clang"
  },
  "schemaVersion": "3.0.0",
  "updatedAt": "2019-01-08T06:37:39.679Z",
  "devdoc": {
    "methods": {
      "renounceOwnership()": {
        "details": "Allows the current owner to relinquish control of the contract."
      },
      "transferOwnership(address)": {
        "details": "Allows the current owner to transfer control of the contract to a newOwner.",
        "params": {
          "_newOwner": "The address to transfer ownership to."
        }
      }
    }
  },
  "userdoc": {
    "methods": {
      "renounceOwnership()": {
        "notice": "Renouncing to ownership will leave the contract without an owner. It will not be possible to call the functions with the `onlyOwner` modifier anymore."
      }
    }
  }
}