{
  "contractName": "Registry",
  "abi": [
    {
      "constant": true,
      "inputs": [
        {
          "name": "",
          "type": "address"
        },
        {
          "name": "",
          "type": "bytes32"
        }
      ],
      "name": "record",
      "outputs": [
        {
          "name": "",
          "type": "bytes32"
        }
      ],
      "payable": false,
      "stateMutability": "view",
      "type": "function"
    },
    {
      "constant": true,
      "inputs": [],
      "name": "REGISTRY_TYPE",
      "outputs": [
        {
          "name": "",
          "type": "bytes32"
        }
      ],
      "payable": false,
      "stateMutability": "view",
      "type": "function"
    },
    {
      "constant": false,
      "inputs": [
        {
          "name": "_operator",
          "type": "address"
        },
        {
          "name": "_status",
          "type": "bool"
        }
      ],
      "name": "updateOperator",
      "outputs": [],
      "payable": false,
      "stateMutability": "nonpayable",
      "type": "function"
    },
    {
      "constant": true,
      "inputs": [
        {
          "name": "_address",
          "type": "address"
        }
      ],
      "name": "isOperator",
      "outputs": [
        {
          "name": "",
          "type": "bool"
        }
      ],
      "payable": false,
      "stateMutability": "view",
      "type": "function"
    },
    {
      "constant": false,
      "inputs": [],
      "name": "renounceOwnership",
      "outputs": [],
      "payable": false,
      "stateMutability": "nonpayable",
      "type": "function"
    },
    {
      "constant": true,
      "inputs": [],
      "name": "owner",
      "outputs": [
        {
          "name": "",
          "type": "address"
        }
      ],
      "payable": false,
      "stateMutability": "view",
      "type": "function"
    },
    {
      "constant": true,
      "inputs": [
        {
          "name": "_attribute",
          "type": "bytes32"
        }
      ],
      "name": "attributeExists",
      "outputs": [
        {
          "name": "",
          "type": "bool"
        }
      ],
      "payable": false,
      "stateMutability": "view",
      "type": "function"
    },
    {
      "constant": true,
      "inputs": [
        {
          "name": "",
          "type": "uint256"
        }
      ],
      "name": "attributes",
      "outputs": [
        {
          "name": "",
          "type": "bytes32"
        }
      ],
      "payable": false,
      "stateMutability": "view",
      "type": "function"
    },
    {
      "constant": true,
      "inputs": [],
      "name": "VERIFICATION_TYPE",
      "outputs": [
        {
          "name": "",
          "type": "bytes32"
        }
      ],
      "payable": false,
      "stateMutability": "view",
      "type": "function"
    },
    {
      "constant": false,
      "inputs": [
        {
          "name": "_newOwner",
          "type": "address"
        }
      ],
      "name": "transferOwnership",
      "outputs": [],
      "payable": false,
      "stateMutability": "nonpayable",
      "type": "function"
    },
    {
      "inputs": [],
      "payable": false,
      "stateMutability": "nonpayable",
      "type": "constructor"
    },
    {
      "anonymous": false,
      "inputs": [
        {
          "indexed": true,
          "name": "operator",
          "type": "address"
        },
        {
          "indexed": true,
          "name": "status",
          "type": "bool"
        },
        {
          "indexed": false,
          "name": "updatedAt",
          "type": "uint256"
        }
      ],
      "name": "OperatorStatusUpdated",
      "type": "event"
    },
    {
      "anonymous": false,
      "inputs": [
        {
          "indexed": true,
          "name": "previousOwner",
          "type": "address"
        }
      ],
      "name": "OwnershipRenounced",
      "type": "event"
    },
    {
      "anonymous": false,
      "inputs": [
        {
          "indexed": true,
          "name": "previousOwner",
          "type": "address"
        },
        {
          "indexed": true,
          "name": "newOwner",
          "type": "address"
        }
      ],
      "name": "OwnershipTransferred",
      "type": "event"
    },
    {
      "anonymous": false,
      "inputs": [
        {
          "indexed": true,
          "name": "registry",
          "type": "address"
        },
        {
          "indexed": true,
          "name": "receiver",
          "type": "address"
        },
        {
          "indexed": false,
          "name": "attribute",
          "type": "bytes32"
        },
        {
          "indexed": false,
          "name": "value",
          "type": "bytes32"
        },
        {
          "indexed": false,
          "name": "updatedAt",
          "type": "uint256"
        }
      ],
      "name": "RecordUpdated",
      "type": "event"
    },
    {
      "anonymous": false,
      "inputs": [
        {
          "indexed": true,
          "name": "registry",
          "type": "address"
        },
        {
          "indexed": true,
          "name": "receiver",
          "type": "address"
        },
        {
          "indexed": false,
          "name": "updatedAt",
          "type": "uint256"
        }
      ],
      "name": "AddressRemoved",
      "type": "event"
    },
    {
      "constant": false,
      "inputs": [
        {
          "name": "_receiver",
          "type": "address"
        },
        {
          "name": "_attribute",
          "type": "bytes32"
        },
        {
          "name": "_value",
          "type": "bytes32"
        }
      ],
      "name": "update",
      "outputs": [],
      "payable": false,
      "stateMutability": "nonpayable",
      "type": "function"
    },
    {
      "constant": false,
      "inputs": [
        {
          "name": "_receiver",
          "type": "address"
        }
      ],
      "name": "remove",
      "outputs": [],
      "payable": false,
      "stateMutability": "nonpayable",
      "type": "function"
    },
    {
      "constant": true,
      "inputs": [
        {
          "name": "_receiver",
          "type": "address"
        },
        {
          "name": "_attribute",
          "type": "bytes32"
        },
        {
          "name": "_value",
          "type": "bytes32"
        }
      ],
      "name": "verify",
      "outputs": [
        {
          "name": "",
          "type": "bool"
        }
      ],
      "payable": false,
      "stateMutability": "view",
      "type": "function"
    },
    {
      "constant": true,
      "inputs": [
        {
          "name": "_receiver",
          "type": "address"
        }
      ],
      "name": "expose",
      "outputs": [
        {
          "name": "",
          "type": "bytes32[]"
        },
        {
          "name": "",
          "type": "bytes32[]"
        }
      ],
      "payable": false,
      "stateMutability": "view",
      "type": "function"
    },
    {
      "constant": true,
      "inputs": [
        {
          "name": "_address",
          "type": "address"
        },
        {
          "name": "_attribute",
          "type": "bytes32"
        }
      ],
      "name": "hasAttribute",
      "outputs": [
        {
          "name": "",
          "type": "bool"
        }
      ],
      "payable": false,
      "stateMutability": "view",
      "type": "function"
    }
  ],
  "bytecode": "0x608060405234801561001057600080fd5b5060008054600160a060020a0319163390811790915561003a9060016401000000006100e7810204565b61008e307f72656769737472792e74797065000000000000000000000000000000000000007f706f7274616c0000000000000000000000000000000000000000000000000000640100000000610160810204565b6100e2307f766572696669636174696f6e2e747970650000000000000000000000000000007f4b59430000000000000000000000000000000000000000000000000000000000640100000000610160810204565b6102ba565b600054600160a060020a031633146100fe57600080fd5b600160a060020a038216600081815260016020908152604091829020805460ff1916851515908117909155825142815292519093927f1490bf5846abf8a5f02ba05428324b614a1be3b07a78f2feb69e0f7841aea90592908290030190a35050565b61017233640100000000610220810204565b151561017d57600080fd5b600160a060020a038316600090815260046020908152604080832085845290915290208190556101b58264010000000061023e810204565b15156101cf576101cd82640100000000610253810204565b505b604080518381526020810183905242818301529051600160a060020a0385169130917f49890ae13d6876dce3fbc8b113103a50c2056e3da74bc468a05aca685050d5589181900360600190a3505050565b600160a060020a031660009081526001602052604090205460ff1690565b60009081526003602052604090205460ff1690565b60008054600160a060020a0316331461026b57600080fd5b6002805460018181019092557f405787fa12a823e0f2b7631cc41b3ba8828b3321ca811111fa75cd3aa3bb5ace01839055600092835260036020526040909220805460ff191690921790915590565b610a17806102c96000396000f3006080604052600436106100da5763ffffffff7c0100000000000000000000000000000000000000000000000000000000600035041663170c699981146100df57806329092d0e146101155780632f6968c01461013857806364ff30041461014d5780636d44a3b2146101745780636d70f7ae1461019a578063715018a6146101cf5780637338c25c146101e45780638da5cb5b146102085780639a6f250b14610239578063c93ca9c5146102f3578063d05dcc6a1461030b578063d916d4e214610323578063db6d232f14610338578063f2fde38b1461035f575b600080fd5b3480156100eb57600080fd5b50610103600160a060020a0360043516602435610380565b60408051918252519081900360200190f35b34801561012157600080fd5b50610136600160a060020a036004351661039d565b005b34801561014457600080fd5b50610103610452565b34801561015957600080fd5b50610136600160a060020a0360043516602435604435610476565b34801561018057600080fd5b50610136600160a060020a0360043516602435151561051b565b3480156101a657600080fd5b506101bb600160a060020a0360043516610594565b604080519115158252519081900360200190f35b3480156101db57600080fd5b506101366105b2565b3480156101f057600080fd5b506101bb600160a060020a036004351660243561061e565b34801561021457600080fd5b5061021d610648565b60408051600160a060020a039092168252519081900360200190f35b34801561024557600080fd5b5061025a600160a060020a0360043516610657565b604051808060200180602001838103835285818151815260200191508051906020019060200280838360005b8381101561029e578181015183820152602001610286565b50505050905001838103825284818151815260200191508051906020019060200280838360005b838110156102dd5781810151838201526020016102c5565b5050505090500194505050505060405180910390f35b3480156102ff57600080fd5b506101bb600435610863565b34801561031757600080fd5b50610103600435610878565b34801561032f57600080fd5b50610103610897565b34801561034457600080fd5b506101bb600160a060020a03600435166024356044356108bb565b34801561036b57600080fd5b50610136600160a060020a03600435166108e4565b600460209081526000928352604080842090915290825290205481565b60006103a833610594565b15156103b357600080fd5b5060005b60025481101561040e57600160a060020a038216600090815260046020526040812060028054919291849081106103ea57fe5b600091825260208083209091015483528201929092526040018120556001016103b7565b604080514281529051600160a060020a0384169130917f53c6138b42c27e0b27ce424b65e1cee1f34e9b9b4e8f28817faf74867e4874389181900360200190a35050565b7f72656769737472792e747970650000000000000000000000000000000000000081565b61047f33610594565b151561048a57600080fd5b600160a060020a038316600090815260046020908152604080832085845290915290208190556104b982610863565b15156104ca576104c882610907565b505b604080518381526020810183905242818301529051600160a060020a0385169130917f49890ae13d6876dce3fbc8b113103a50c2056e3da74bc468a05aca685050d5589181900360600190a3505050565b600054600160a060020a0316331461053257600080fd5b600160a060020a038216600081815260016020908152604091829020805460ff1916851515908117909155825142815292519093927f1490bf5846abf8a5f02ba05428324b614a1be3b07a78f2feb69e0f7841aea90592908290030190a35050565b600160a060020a031660009081526001602052604090205460ff1690565b600054600160a060020a031633146105c957600080fd5b60008054604051600160a060020a03909116917ff8df31144d9c2f0f6b59d69b8b98abd5459d07f2742c4df920b25aae33c6482091a26000805473ffffffffffffffffffffffffffffffffffffffff19169055565b600160a060020a039190911660009081526004602090815260408083209383529290522054151590565b600054600160a060020a031681565b606080600080606080600080606080600280549050975087604051908082528060200260200182016040528015610698578160200160208202803883390190505b509550876040519080825280602002602001820160405280156106c5578160200160208202803883390190505b509450600092505b60025483101561078157600160a060020a038b166000908152600460205260408120600280549192918690811061070057fe5b600091825260208083209091015483528201929092526040019020549650861561077657600280548490811061073257fe5b9060005260206000200154868581518110151561074b57fe5b602090810290910101528451879086908690811061076557fe5b602090810290910101526001909301925b6001909201916106cd565b836040519080825280602002602001820160405280156107ab578160200160208202803883390190505b509150836040519080825280602002602001820160405280156107d8578160200160208202803883390190505b509050600092505b838310156108535785838151811015156107f657fe5b90602001906020020151828481518110151561080e57fe5b60209081029091010152845185908490811061082657fe5b90602001906020020151818481518110151561083e57fe5b602090810290910101526001909201916107e0565b909a909950975050505050505050565b60009081526003602052604090205460ff1690565b600280548290811061088657fe5b600091825260209091200154905081565b7f766572696669636174696f6e2e7479706500000000000000000000000000000081565b600160a060020a0392909216600090815260046020908152604080832093835292905220541490565b600054600160a060020a031633146108fb57600080fd5b6109048161096e565b50565b60008054600160a060020a0316331461091f57600080fd5b6002805460018181019092557f405787fa12a823e0f2b7631cc41b3ba8828b3321ca811111fa75cd3aa3bb5ace01839055600092835260036020526040909220805460ff191690921790915590565b600160a060020a038116151561098357600080fd5b60008054604051600160a060020a03808516939216917f8be0079c531659141344cd1fd0a4f28419497f9722a3daafe3b4186f6b6457e091a36000805473ffffffffffffffffffffffffffffffffffffffff1916600160a060020a03929092169190911790555600a165627a7a72305820910440480449299451f3ef2453ba30243622f45714751624a50b76c9e8b720410029",
  "source": "pragma solidity ^0.4.24;\n/*\n * @title: Verified Token Registry\n * Receivers management contract\n * Created on 2018-04-26, by Blockchain Labs, NZ\n */\nimport \"./interfaces/IRegistry.sol\";\nimport \"./Operator.sol\";\nimport \"./Attribute.sol\";\nimport \"./Attributes.sol\";\n\n\ncontract Registry is IRegistry, Operator, Attribute, Attributes {\n  /*\n   * @dev: [receiver address => [attribute => value]]\n   * @dev: Example:\n   * @dev: 0x12.. => [\"type\" => \"exchange\"]\n   * @dev: 0x12.. => [\"age group\" => \"20-30\"]\n   */\n  mapping(address => mapping(bytes32 => bytes32)) public record;\n\n\t/*\n   * @notice: attribute key and value are stored in 'pairs'\n   */\n  struct pairs {\n    bytes32 attribute;\n    bytes32 value;\n  }\n\n  modifier onlyOperator() {\n    require(isOperator(msg.sender));\n    _;\n  }\n\n  /*\n   * @notice: on deploying, the contract \"proves\" that it is a registry and adds its first operator\n   */\n  constructor() public {\n    updateOperator(msg.sender, true);\n    update(this, REGISTRY_TYPE, \"portal\");\n    update(this, VERIFICATION_TYPE, \"KYC\");   // What type of registry you are? Update it.\n  }\n\n  /*\n   * @notice: Registry can add new addresses to the list or update existed\n   */\n  function update(address _receiver, bytes32 _attribute, bytes32 _value) public onlyOperator {\n    record[_receiver][_attribute] = _value;\n    if(!attributeExists(_attribute))\n      addAttribute(_attribute);\n    emit RecordUpdated(this, _receiver, _attribute, _value, now);\n  }\n\n  /*\n   * @notice: Registry can remove the given address completely\n   */\n  function remove(address _receiver) public onlyOperator {\n    for(uint256 i = 0; i < attributes.length; i++ )\n      delete record[_receiver][attributes[i]];\n    emit AddressRemoved(this, _receiver, now);\n  }\n\n  /*\n   * @dev: Check if registry contains the record with verifying address and pair attribute => value\n   */\n  function verify(address _receiver, bytes32 _attribute, bytes32 _value) public view returns(bool) {\n    return(record[_receiver][_attribute] == _value);\n  }\n\n  /*\n   * @dev: returns attribute=>value pairs of given receiver\n   */\n  function expose(address _receiver) public view returns(bytes32[], bytes32[]) {\n    uint256 maxNumberOfPairs = attributes.length;\n    bytes32 currentValue;\n    bytes32[] memory receiverKeys = new bytes32[](maxNumberOfPairs);\n    bytes32[] memory receiverValues = new bytes32[](maxNumberOfPairs);\n    uint256 iteratorOfPairsOfReceiver;\n\n    for(uint256 i = 0; i < attributes.length; i++ ) {\n      currentValue= record[_receiver][attributes[i]];\n      if(currentValue != 0) {\n        receiverKeys[iteratorOfPairsOfReceiver] = attributes[i];\n        receiverValues[iteratorOfPairsOfReceiver] = currentValue;\n        iteratorOfPairsOfReceiver++;\n      }\n    }\n\n    bytes32[] memory returnKeys = new bytes32[](iteratorOfPairsOfReceiver);\n    bytes32[] memory returnValues = new bytes32[](iteratorOfPairsOfReceiver);\n\n    for(i = 0; i < iteratorOfPairsOfReceiver; i++ ) {\n      returnKeys[i] = receiverKeys[i];\n      returnValues[i] = receiverValues[i];\n    }\n    return(returnKeys, returnValues);\n  }\n\n  /*\n   * @dev: check if address has an attribute\n   */\n  function hasAttribute(address _address, bytes32 _attribute) public view returns(bool) {\n    return(record[_address][_attribute] != \"\");\n  }\n}\n",
  "sourcePath": "/Users/pengliu/work/bankorus_sto/VerifiedToken-master/contracts/Registry.sol",
  "compiler": {
    "name": "solc",
    "version": "0.4.24+commit.e67f0147.Emscripten.clang"
  },
  "schemaVersion": "3.0.0",
  "updatedAt": "2019-01-08T06:37:39.679Z",
  "devdoc": {
    "methods": {
      "renounceOwnership()": {
        "details": "Allows the current owner to relinquish control of the contract."
      },
      "transferOwnership(address)": {
        "details": "Allows the current owner to transfer control of the contract to a newOwner.",
        "params": {
          "_newOwner": "The address to transfer ownership to."
        }
      }
    }
  },
  "userdoc": {
    "methods": {
      "renounceOwnership()": {
        "notice": "Renouncing to ownership will leave the contract without an owner. It will not be possible to call the functions with the `onlyOwner` modifier anymore."
      }
    }
  }
}