{
  "contractName": "Attribute",
  "abi": [
    {
      "constant": false,
      "inputs": [],
      "name": "renounceOwnership",
      "outputs": [],
      "payable": false,
      "stateMutability": "nonpayable",
      "type": "function"
    },
    {
      "constant": true,
      "inputs": [],
      "name": "owner",
      "outputs": [
        {
          "name": "",
          "type": "address"
        }
      ],
      "payable": false,
      "stateMutability": "view",
      "type": "function"
    },
    {
      "constant": true,
      "inputs": [
        {
          "name": "",
          "type": "uint256"
        }
      ],
      "name": "attributes",
      "outputs": [
        {
          "name": "",
          "type": "bytes32"
        }
      ],
      "payable": false,
      "stateMutability": "view",
      "type": "function"
    },
    {
      "constant": false,
      "inputs": [
        {
          "name": "_newOwner",
          "type": "address"
        }
      ],
      "name": "transferOwnership",
      "outputs": [],
      "payable": false,
      "stateMutability": "nonpayable",
      "type": "function"
    },
    {
      "anonymous": false,
      "inputs": [
        {
          "indexed": true,
          "name": "previousOwner",
          "type": "address"
        }
      ],
      "name": "OwnershipRenounced",
      "type": "event"
    },
    {
      "anonymous": false,
      "inputs": [
        {
          "indexed": true,
          "name": "previousOwner",
          "type": "address"
        },
        {
          "indexed": true,
          "name": "newOwner",
          "type": "address"
        }
      ],
      "name": "OwnershipTransferred",
      "type": "event"
    },
    {
      "constant": true,
      "inputs": [
        {
          "name": "_attribute",
          "type": "bytes32"
        }
      ],
      "name": "attributeExists",
      "outputs": [
        {
          "name": "",
          "type": "bool"
        }
      ],
      "payable": false,
      "stateMutability": "view",
      "type": "function"
    }
  ],
  "bytecode": "0x608060405260008054600160a060020a031916331790556102ab806100256000396000f30060806040526004361061006c5763ffffffff7c0100000000000000000000000000000000000000000000000000000000600035041663715018a681146100715780638da5cb5b14610088578063c93ca9c5146100b9578063d05dcc6a146100e5578063f2fde38b1461010f575b600080fd5b34801561007d57600080fd5b50610086610130565b005b34801561009457600080fd5b5061009d61019c565b60408051600160a060020a039092168252519081900360200190f35b3480156100c557600080fd5b506100d16004356101ab565b604080519115158252519081900360200190f35b3480156100f157600080fd5b506100fd6004356101c0565b60408051918252519081900360200190f35b34801561011b57600080fd5b50610086600160a060020a03600435166101df565b600054600160a060020a0316331461014757600080fd5b60008054604051600160a060020a03909116917ff8df31144d9c2f0f6b59d69b8b98abd5459d07f2742c4df920b25aae33c6482091a26000805473ffffffffffffffffffffffffffffffffffffffff19169055565b600054600160a060020a031681565b60009081526002602052604090205460ff1690565b60018054829081106101ce57fe5b600091825260209091200154905081565b600054600160a060020a031633146101f657600080fd5b6101ff81610202565b50565b600160a060020a038116151561021757600080fd5b60008054604051600160a060020a03808516939216917f8be0079c531659141344cd1fd0a4f28419497f9722a3daafe3b4186f6b6457e091a36000805473ffffffffffffffffffffffffffffffffffffffff1916600160a060020a03929092169190911790555600a165627a7a72305820d9a1ef058897d4de2956fe0ef223c730d77c8bba8e4751d97650a250fae656500029",
  "source": "pragma solidity ^0.4.24;\n/*\n * @title: VTRegistry Operator\n * Registry Operators management\n * Created on 2018-04-26, by Blockchain Labs, NZ\n */\nimport \"openzeppelin-solidity/contracts/ownership/Ownable.sol\";\n\n\ncontract Attribute is Ownable {\n  /*\n   *  @dev: attributes used by registry (in records).\n   *  @dev: Array of attributes is needed to iterate through them, and mapping is used to\n   *  @dev: decrease the gas of checking whether the new attribute is need to be added to array or not.\n   */\n  bytes32[] public attributes;\n\n  /*\n   * @dev: 'Attribute' mapping is used to keep information about available attributes\n   */\n  mapping(bytes32 => bool) private attribute;\n\n  /*\n   * @dev: check if attribute exists\n   */\n  function attributeExists(bytes32 _attribute) public view returns(bool) {\n  \treturn(attribute[_attribute]);\n  }\n\n  /*\n   * @dev: add new attribute to mapping and array\n   */\n  function addAttribute(bytes32 _attribute) internal onlyOwner returns(bool) {\n  \tattributes.push(_attribute);\n  \tattribute[_attribute] = true;\n  }\n}",
  "sourcePath": "/Users/pengliu/work/bankorus_sto/VerifiedToken-master/contracts/Attribute.sol",
  "compiler": {
    "name": "solc",
    "version": "0.4.24+commit.e67f0147.Emscripten.clang"
  },
  "schemaVersion": "3.0.0",
  "updatedAt": "2019-01-08T06:37:39.674Z",
  "devdoc": {
    "methods": {
      "renounceOwnership()": {
        "details": "Allows the current owner to relinquish control of the contract."
      },
      "transferOwnership(address)": {
        "details": "Allows the current owner to transfer control of the contract to a newOwner.",
        "params": {
          "_newOwner": "The address to transfer ownership to."
        }
      }
    }
  },
  "userdoc": {
    "methods": {
      "renounceOwnership()": {
        "notice": "Renouncing to ownership will leave the contract without an owner. It will not be possible to call the functions with the `onlyOwner` modifier anymore."
      }
    }
  }
}