{
  "contractName": "BankorusToken",
  "abi": [
    {
      "constant": true,
      "inputs": [],
      "name": "name",
      "outputs": [
        {
          "name": "",
          "type": "string"
        }
      ],
      "payable": false,
      "stateMutability": "view",
      "type": "function"
    },
    {
      "constant": false,
      "inputs": [
        {
          "name": "_spender",
          "type": "address"
        },
        {
          "name": "_value",
          "type": "uint256"
        }
      ],
      "name": "approve",
      "outputs": [
        {
          "name": "",
          "type": "bool"
        }
      ],
      "payable": false,
      "stateMutability": "nonpayable",
      "type": "function"
    },
    {
      "constant": true,
      "inputs": [],
      "name": "totalSupply",
      "outputs": [
        {
          "name": "",
          "type": "uint256"
        }
      ],
      "payable": false,
      "stateMutability": "view",
      "type": "function"
    },
    {
      "constant": true,
      "inputs": [],
      "name": "decimals",
      "outputs": [
        {
          "name": "",
          "type": "uint8"
        }
      ],
      "payable": false,
      "stateMutability": "view",
      "type": "function"
    },
    {
      "constant": false,
      "inputs": [],
      "name": "unpause",
      "outputs": [],
      "payable": false,
      "stateMutability": "nonpayable",
      "type": "function"
    },
    {
      "constant": true,
      "inputs": [],
      "name": "paused",
      "outputs": [
        {
          "name": "",
          "type": "bool"
        }
      ],
      "payable": false,
      "stateMutability": "view",
      "type": "function"
    },
    {
      "constant": false,
      "inputs": [
        {
          "name": "_spender",
          "type": "address"
        },
        {
          "name": "_subtractedValue",
          "type": "uint256"
        }
      ],
      "name": "decreaseApproval",
      "outputs": [
        {
          "name": "success",
          "type": "bool"
        }
      ],
      "payable": false,
      "stateMutability": "nonpayable",
      "type": "function"
    },
    {
      "constant": true,
      "inputs": [
        {
          "name": "_owner",
          "type": "address"
        }
      ],
      "name": "balanceOf",
      "outputs": [
        {
          "name": "",
          "type": "uint256"
        }
      ],
      "payable": false,
      "stateMutability": "view",
      "type": "function"
    },
    {
      "constant": false,
      "inputs": [],
      "name": "renounceOwnership",
      "outputs": [],
      "payable": false,
      "stateMutability": "nonpayable",
      "type": "function"
    },
    {
      "constant": true,
      "inputs": [],
      "name": "regulation",
      "outputs": [
        {
          "name": "",
          "type": "string"
        }
      ],
      "payable": false,
      "stateMutability": "view",
      "type": "function"
    },
    {
      "constant": false,
      "inputs": [],
      "name": "pause",
      "outputs": [],
      "payable": false,
      "stateMutability": "nonpayable",
      "type": "function"
    },
    {
      "constant": true,
      "inputs": [],
      "name": "owner",
      "outputs": [
        {
          "name": "",
          "type": "address"
        }
      ],
      "payable": false,
      "stateMutability": "view",
      "type": "function"
    },
    {
      "constant": true,
      "inputs": [],
      "name": "symbol",
      "outputs": [
        {
          "name": "",
          "type": "string"
        }
      ],
      "payable": false,
      "stateMutability": "view",
      "type": "function"
    },
    {
      "constant": true,
      "inputs": [],
      "name": "createdAt",
      "outputs": [
        {
          "name": "",
          "type": "uint256"
        }
      ],
      "payable": false,
      "stateMutability": "view",
      "type": "function"
    },
    {
      "constant": false,
      "inputs": [
        {
          "name": "_spender",
          "type": "address"
        },
        {
          "name": "_addedValue",
          "type": "uint256"
        }
      ],
      "name": "increaseApproval",
      "outputs": [
        {
          "name": "success",
          "type": "bool"
        }
      ],
      "payable": false,
      "stateMutability": "nonpayable",
      "type": "function"
    },
    {
      "constant": true,
      "inputs": [
        {
          "name": "_owner",
          "type": "address"
        },
        {
          "name": "_spender",
          "type": "address"
        }
      ],
      "name": "allowance",
      "outputs": [
        {
          "name": "",
          "type": "uint256"
        }
      ],
      "payable": false,
      "stateMutability": "view",
      "type": "function"
    },
    {
      "constant": false,
      "inputs": [
        {
          "name": "_newOwner",
          "type": "address"
        }
      ],
      "name": "transferOwnership",
      "outputs": [],
      "payable": false,
      "stateMutability": "nonpayable",
      "type": "function"
    },
    {
      "inputs": [
        {
          "name": "_controller",
          "type": "address"
        },
        {
          "name": "_name",
          "type": "string"
        },
        {
          "name": "_symbol",
          "type": "string"
        },
        {
          "name": "_decimal",
          "type": "uint8"
        },
        {
          "name": "_totalSupply",
          "type": "uint256"
        },
        {
          "name": "_createdAt",
          "type": "uint256"
        },
        {
          "name": "_regulation",
          "type": "string"
        }
      ],
      "payable": false,
      "stateMutability": "nonpayable",
      "type": "constructor"
    },
    {
      "anonymous": false,
      "inputs": [],
      "name": "Pause",
      "type": "event"
    },
    {
      "anonymous": false,
      "inputs": [],
      "name": "Unpause",
      "type": "event"
    },
    {
      "anonymous": false,
      "inputs": [
        {
          "indexed": true,
          "name": "previousOwner",
          "type": "address"
        }
      ],
      "name": "OwnershipRenounced",
      "type": "event"
    },
    {
      "anonymous": false,
      "inputs": [
        {
          "indexed": true,
          "name": "previousOwner",
          "type": "address"
        },
        {
          "indexed": true,
          "name": "newOwner",
          "type": "address"
        }
      ],
      "name": "OwnershipTransferred",
      "type": "event"
    },
    {
      "anonymous": false,
      "inputs": [
        {
          "indexed": true,
          "name": "owner",
          "type": "address"
        },
        {
          "indexed": true,
          "name": "spender",
          "type": "address"
        },
        {
          "indexed": false,
          "name": "value",
          "type": "uint256"
        }
      ],
      "name": "Approval",
      "type": "event"
    },
    {
      "anonymous": false,
      "inputs": [
        {
          "indexed": true,
          "name": "from",
          "type": "address"
        },
        {
          "indexed": true,
          "name": "to",
          "type": "address"
        },
        {
          "indexed": false,
          "name": "value",
          "type": "uint256"
        }
      ],
      "name": "Transfer",
      "type": "event"
    },
    {
      "anonymous": false,
      "inputs": [
        {
          "indexed": false,
          "name": "controller",
          "type": "address"
        },
        {
          "indexed": false,
          "name": "updatedAt",
          "type": "uint256"
        }
      ],
      "name": "ControllerChanged",
      "type": "event"
    },
    {
      "constant": false,
      "inputs": [
        {
          "name": "_to",
          "type": "address"
        },
        {
          "name": "_value",
          "type": "uint256"
        }
      ],
      "name": "transfer",
      "outputs": [
        {
          "name": "",
          "type": "bool"
        }
      ],
      "payable": false,
      "stateMutability": "nonpayable",
      "type": "function"
    },
    {
      "constant": false,
      "inputs": [
        {
          "name": "_from",
          "type": "address"
        },
        {
          "name": "_to",
          "type": "address"
        },
        {
          "name": "_value",
          "type": "uint256"
        }
      ],
      "name": "transferFrom",
      "outputs": [
        {
          "name": "",
          "type": "bool"
        }
      ],
      "payable": false,
      "stateMutability": "nonpayable",
      "type": "function"
    },
    {
      "constant": true,
      "inputs": [],
      "name": "getController",
      "outputs": [
        {
          "name": "",
          "type": "address"
        }
      ],
      "payable": false,
      "stateMutability": "view",
      "type": "function"
    },
    {
      "constant": false,
      "inputs": [
        {
          "name": "_controller",
          "type": "address"
        }
      ],
      "name": "changeController",
      "outputs": [
        {
          "name": "",
          "type": "address"
        }
      ],
      "payable": false,
      "stateMutability": "nonpayable",
      "type": "function"
    }
  ],
  "bytecode": "0x60806040526003805460a060020a60ff02191690553480156200002157600080fd5b5060405162001301380380620013018339810160409081528151602080840151928401516060850151608086015160a087015160c088015160038054600160a060020a03191633179055968801805196989097948101969395929491939101918791879187916200009991600491908601906200023e565b508151620000af9060059060208501906200023e565b506006805460ff191660ff9290921691909117905550620000db90508764010000000062000116810204565b508051620000f19060079060208401906200023e565b505060085560018190553360009081526020819052604090205550620002e392505050565b600354600090600160a060020a031633146200013157600080fd5b600654600160a060020a03838116610100909204161415620001da57604080517f08c379a000000000000000000000000000000000000000000000000000000000815260206004820152602160248201527f436f6e74726f6c6c65722073686f756c64206e6f74206265207468652073616d60448201527f6500000000000000000000000000000000000000000000000000000000000000606482015290519081900360840190fd5b6006805461010060a860020a031916610100600160a060020a038516908102919091179091556040805191825242602083015280517f8cf1cbc25758c16f47e27029c8104e5be712c49e9baaf12c1fd697a91b4316809281900390910190a1919050565b828054600181600116156101000203166002900490600052602060002090601f016020900481019282601f106200028157805160ff1916838001178555620002b1565b82800160010185558215620002b1579182015b82811115620002b157825182559160200191906001019062000294565b50620002bf929150620002c3565b5090565b620002e091905b80821115620002bf5760008155600101620002ca565b90565b61100e80620002f36000396000f30060806040526004361061011c5763ffffffff7c010000000000000000000000000000000000000000000000000000000060003504166306fdde038114610121578063095ea7b3146101ab57806318160ddd146101e357806323b872dd1461020a5780633018205f14610234578063313ce567146102655780633cebb823146102905780633f4ba83a146102b15780635c975abb146102c857806366188463146102dd57806370a0823114610301578063715018a614610322578063789c637c146103375780638456cb591461034c5780638da5cb5b1461036157806395d89b4114610376578063a9059cbb1461038b578063cf09e0d0146103af578063d73dd623146103c4578063dd62ed3e146103e8578063f2fde38b1461040f575b600080fd5b34801561012d57600080fd5b50610136610430565b6040805160208082528351818301528351919283929083019185019080838360005b83811015610170578181015183820152602001610158565b50505050905090810190601f16801561019d5780820380516001836020036101000a031916815260200191505b509250505060405180910390f35b3480156101b757600080fd5b506101cf600160a060020a03600435166024356104be565b604080519115158252519081900360200190f35b3480156101ef57600080fd5b506101f86104e9565b60408051918252519081900360200190f35b34801561021657600080fd5b506101cf600160a060020a03600435811690602435166044356104ef565b34801561024057600080fd5b506102496105b0565b60408051600160a060020a039092168252519081900360200190f35b34801561027157600080fd5b5061027a6105c4565b6040805160ff9092168252519081900360200190f35b34801561029c57600080fd5b50610249600160a060020a03600435166105cd565b3480156102bd57600080fd5b506102c6610700565b005b3480156102d457600080fd5b506101cf610778565b3480156102e957600080fd5b506101cf600160a060020a0360043516602435610788565b34801561030d57600080fd5b506101f8600160a060020a03600435166107ac565b34801561032e57600080fd5b506102c66107c7565b34801561034357600080fd5b50610136610835565b34801561035857600080fd5b506102c6610890565b34801561036d57600080fd5b5061024961090d565b34801561038257600080fd5b5061013661091c565b34801561039757600080fd5b506101cf600160a060020a0360043516602435610977565b3480156103bb57600080fd5b506101f8610a34565b3480156103d057600080fd5b506101cf600160a060020a0360043516602435610a3a565b3480156103f457600080fd5b506101f8600160a060020a0360043581169060243516610a5e565b34801561041b57600080fd5b506102c6600160a060020a0360043516610a89565b6004805460408051602060026001851615610100026000190190941693909304601f810184900484028201840190925281815292918301828280156104b65780601f1061048b576101008083540402835291602001916104b6565b820191906000526020600020905b81548152906001019060200180831161049957829003601f168201915b505050505081565b60035460009060a060020a900460ff16156104d857600080fd5b6104e28383610aac565b9392505050565b60015490565b600654604080517f97e2b9af000000000000000000000000000000000000000000000000000000008152600160a060020a038581166004830152868116602483015291516000936101009004909216916397e2b9af9160448082019260209290919082900301818787803b15801561056657600080fd5b505af115801561057a573d6000803e3d6000fd5b505050506040513d602081101561059057600080fd5b5051151561059d57600080fd5b6105a8848484610b12565b509392505050565b6006546101009004600160a060020a031690565b60065460ff1681565b600354600090600160a060020a031633146105e757600080fd5b600654600160a060020a0383811661010090920416141561068f57604080517f08c379a000000000000000000000000000000000000000000000000000000000815260206004820152602160248201527f436f6e74726f6c6c65722073686f756c64206e6f74206265207468652073616d60448201527f6500000000000000000000000000000000000000000000000000000000000000606482015290519081900360840190fd5b6006805474ffffffffffffffffffffffffffffffffffffffff001916610100600160a060020a038516908102919091179091556040805191825242602083015280517f8cf1cbc25758c16f47e27029c8104e5be712c49e9baaf12c1fd697a91b4316809281900390910190a1919050565b600354600160a060020a0316331461071757600080fd5b60035460a060020a900460ff16151561072f57600080fd5b6003805474ff0000000000000000000000000000000000000000191690556040517f7805862f689e2f13df9f062ff482ad3ad112aca9e0847911ed832e158c525b3390600090a1565b60035460a060020a900460ff1681565b60035460009060a060020a900460ff16156107a257600080fd5b6104e28383610b3f565b600160a060020a031660009081526020819052604090205490565b600354600160a060020a031633146107de57600080fd5b600354604051600160a060020a03909116907ff8df31144d9c2f0f6b59d69b8b98abd5459d07f2742c4df920b25aae33c6482090600090a26003805473ffffffffffffffffffffffffffffffffffffffff19169055565b6007805460408051602060026001851615610100026000190190941693909304601f810184900484028201840190925281815292918301828280156104b65780601f1061048b576101008083540402835291602001916104b6565b600354600160a060020a031633146108a757600080fd5b60035460a060020a900460ff16156108be57600080fd5b6003805474ff0000000000000000000000000000000000000000191660a060020a1790556040517f6985a02210a168e66602d3235cb6db0e70f92b3ba4d376a33c0f3d9434bff62590600090a1565b600354600160a060020a031681565b6005805460408051602060026001851615610100026000190190941693909304601f810184900484028201840190925281815292918301828280156104b65780601f1061048b576101008083540402835291602001916104b6565b600654604080517f97e2b9af000000000000000000000000000000000000000000000000000000008152600160a060020a03858116600483015233602483015291516000936101009004909216916397e2b9af9160448082019260209290919082900301818787803b1580156109ec57600080fd5b505af1158015610a00573d6000803e3d6000fd5b505050506040513d6020811015610a1657600080fd5b50511515610a2357600080fd5b610a2d8383610c2e565b5092915050565b60085481565b60035460009060a060020a900460ff1615610a5457600080fd5b6104e28383610c52565b600160a060020a03918216600090815260026020908152604080832093909416825291909152205490565b600354600160a060020a03163314610aa057600080fd5b610aa981610ceb565b50565b336000818152600260209081526040808320600160a060020a038716808552908352818420869055815186815291519394909390927f8c5be1e5ebec7d5bd14f71427d1e84f3dd0314c0f7b2291e5b200ac8c7c3b925928290030190a350600192915050565b60035460009060a060020a900460ff1615610b2c57600080fd5b610b37848484610d69565b949350505050565b336000908152600260209081526040808320600160a060020a0386168452909152812054808310610b9357336000908152600260209081526040808320600160a060020a0388168452909152812055610bc8565b610ba3818463ffffffff610ede16565b336000908152600260209081526040808320600160a060020a03891684529091529020555b336000818152600260209081526040808320600160a060020a0389168085529083529281902054815190815290519293927f8c5be1e5ebec7d5bd14f71427d1e84f3dd0314c0f7b2291e5b200ac8c7c3b925929181900390910190a35060019392505050565b60035460009060a060020a900460ff1615610c4857600080fd5b6104e28383610ef0565b336000908152600260209081526040808320600160a060020a0386168452909152812054610c86908363ffffffff610fcf16565b336000818152600260209081526040808320600160a060020a0389168085529083529281902085905580519485525191937f8c5be1e5ebec7d5bd14f71427d1e84f3dd0314c0f7b2291e5b200ac8c7c3b925929081900390910190a350600192915050565b600160a060020a0381161515610d0057600080fd5b600354604051600160a060020a038084169216907f8be0079c531659141344cd1fd0a4f28419497f9722a3daafe3b4186f6b6457e090600090a36003805473ffffffffffffffffffffffffffffffffffffffff1916600160a060020a0392909216919091179055565b600160a060020a038316600090815260208190526040812054821115610d8e57600080fd5b600160a060020a0384166000908152600260209081526040808320338452909152902054821115610dbe57600080fd5b600160a060020a0383161515610dd357600080fd5b600160a060020a038416600090815260208190526040902054610dfc908363ffffffff610ede16565b600160a060020a038086166000908152602081905260408082209390935590851681522054610e31908363ffffffff610fcf16565b600160a060020a03808516600090815260208181526040808320949094559187168152600282528281203382529091522054610e73908363ffffffff610ede16565b600160a060020a03808616600081815260026020908152604080832033845282529182902094909455805186815290519287169391927fddf252ad1be2c89b69c2b068fc378daa952ba7f163c4a11628f55a4df523b3ef929181900390910190a35060019392505050565b600082821115610eea57fe5b50900390565b33600090815260208190526040812054821115610f0c57600080fd5b600160a060020a0383161515610f2157600080fd5b33600090815260208190526040902054610f41908363ffffffff610ede16565b3360009081526020819052604080822092909255600160a060020a03851681522054610f73908363ffffffff610fcf16565b600160a060020a038416600081815260208181526040918290209390935580518581529051919233927fddf252ad1be2c89b69c2b068fc378daa952ba7f163c4a11628f55a4df523b3ef9281900390910190a350600192915050565b81810182811015610fdc57fe5b929150505600a165627a7a72305820fa39bd92ae50273b90e605db43409f599418d8eb7ac4579a31bb0ea3a59aedf00029",
  "source": "pragma solidity ^0.4.24;\n/*\n * @title: Verified Token\n * Implementation of transfer() and transferFrom() that checks if the receiver\n * has enlisted in the registries required by the token issuer/controller\n * Created on 2018-04-26, by Blockchain Labs, NZ\n */\nimport \"openzeppelin-solidity/contracts/token/ERC20/DetailedERC20.sol\";\nimport \"openzeppelin-solidity/contracts/token/ERC20/PausableToken.sol\";\nimport \"openzeppelin-solidity/contracts/token/ERC20/MintableToken.sol\";\nimport \"openzeppelin-solidity/contracts/ownership/Ownable.sol\";\nimport \"./interfaces/IController.sol\";\nimport \"./interfaces/IToken.sol\";\n\n\ncontract BankorusToken is IToken, Ownable, PausableToken, DetailedERC20 {\n  IController private tokenController;\n  \n  string public regulation;\n  uint256 public createdAt;\n\n\n  /*\n   * @dev: It requires to setup controller on deployment of the token contract\n   * @param _controller - address of Verified Token Controller contract\n   */\n  constructor(\n    IController _controller, \n    string _name, \n    string _symbol,\n    uint8 _decimal,\n    uint256 _totalSupply,\n    uint256 _createdAt, \n    string _regulation\n  )\n    DetailedERC20(_name, _symbol, _decimal)\n    public {\n    changeController(_controller);\n    regulation = _regulation;\n    createdAt = _createdAt;\n    totalSupply_ = _totalSupply;\n    balances[msg.sender] = _totalSupply;\n  }\n\n  /*\n   * @dev: It calls standard transfer() function after checking if the transfer is allowed.\n   * @param _to  - address of recipient\n   * @param _value - the amount to transfer\n   */\n  function transfer(address _to, uint256 _value) public returns (bool) {\n    require(tokenController.isTransferAllowed(_to, msg.sender));\n    super.transfer(_to, _value);\n  }\n\n  /*\n   * @dev: It calls standard transferFrom() function after checking if the transfer is allowed.\n   * @param _from - address of sender\n   * @param _to  - address of recipient\n   * @param _value - the amount to transfer\n   */\n  function transferFrom(address _from, address _to, uint256 _value) public returns (bool) {\n    require(tokenController.isTransferAllowed(_to, _from));\n    super.transferFrom(_from, _to, _value);\n  }\n\n  /*\n   * @dev: It returns address of current Controller contract\n   */\n  function getController() public view returns (address) {\n    return address(tokenController);\n  }\n\n  /*\n   * @dev: Change the controller of the Token\n   */\n  function changeController(IController _controller) public onlyOwner returns (address) {\n    require(_controller != tokenController, \"Controller should not be the same\");\n    tokenController = IController(_controller);\n    emit ControllerChanged(_controller, now);\n  }\n}\n",
  "sourcePath": "/Users/pengliu/work/bankorus_sto/VerifiedToken-master/contracts/BankorusToken.sol",
  "compiler": {
    "name": "solc",
    "version": "0.4.24+commit.e67f0147.Emscripten.clang"
  },
  "schemaVersion": "3.0.0",
  "updatedAt": "2019-01-09T03:52:54.120Z",
  "devdoc": {
    "methods": {
      "allowance(address,address)": {
        "details": "Function to check the amount of tokens that an owner allowed to a spender.",
        "params": {
          "_owner": "address The address which owns the funds.",
          "_spender": "address The address which will spend the funds."
        },
        "return": "A uint256 specifying the amount of tokens still available for the spender."
      },
      "balanceOf(address)": {
        "details": "Gets the balance of the specified address.",
        "params": {
          "_owner": "The address to query the the balance of."
        },
        "return": "An uint256 representing the amount owned by the passed address."
      },
      "pause()": {
        "details": "called by the owner to pause, triggers stopped state"
      },
      "renounceOwnership()": {
        "details": "Allows the current owner to relinquish control of the contract."
      },
      "totalSupply()": {
        "details": "Total number of tokens in existence"
      },
      "transferOwnership(address)": {
        "details": "Allows the current owner to transfer control of the contract to a newOwner.",
        "params": {
          "_newOwner": "The address to transfer ownership to."
        }
      },
      "unpause()": {
        "details": "called by the owner to unpause, returns to normal state"
      }
    }
  },
  "userdoc": {
    "methods": {
      "renounceOwnership()": {
        "notice": "Renouncing to ownership will leave the contract without an owner. It will not be possible to call the functions with the `onlyOwner` modifier anymore."
      }
    }
  }
}