{
  "contractName": "BankorusFactory",
  "abi": [
    {
      "constant": false,
      "inputs": [],
      "name": "unpause",
      "outputs": [],
      "payable": false,
      "stateMutability": "nonpayable",
      "type": "function"
    },
    {
      "constant": true,
      "inputs": [],
      "name": "controllerAddress",
      "outputs": [
        {
          "name": "",
          "type": "address"
        }
      ],
      "payable": false,
      "stateMutability": "view",
      "type": "function"
    },
    {
      "constant": true,
      "inputs": [],
      "name": "paused",
      "outputs": [
        {
          "name": "",
          "type": "bool"
        }
      ],
      "payable": false,
      "stateMutability": "view",
      "type": "function"
    },
    {
      "constant": false,
      "inputs": [],
      "name": "renounceOwnership",
      "outputs": [],
      "payable": false,
      "stateMutability": "nonpayable",
      "type": "function"
    },
    {
      "constant": false,
      "inputs": [],
      "name": "pause",
      "outputs": [],
      "payable": false,
      "stateMutability": "nonpayable",
      "type": "function"
    },
    {
      "constant": true,
      "inputs": [],
      "name": "owner",
      "outputs": [
        {
          "name": "",
          "type": "address"
        }
      ],
      "payable": false,
      "stateMutability": "view",
      "type": "function"
    },
    {
      "constant": true,
      "inputs": [],
      "name": "tokenAddress",
      "outputs": [
        {
          "name": "",
          "type": "address"
        }
      ],
      "payable": false,
      "stateMutability": "view",
      "type": "function"
    },
    {
      "constant": true,
      "inputs": [],
      "name": "registryAddress",
      "outputs": [
        {
          "name": "",
          "type": "address"
        }
      ],
      "payable": false,
      "stateMutability": "view",
      "type": "function"
    },
    {
      "constant": false,
      "inputs": [
        {
          "name": "_newOwner",
          "type": "address"
        }
      ],
      "name": "transferOwnership",
      "outputs": [],
      "payable": false,
      "stateMutability": "nonpayable",
      "type": "function"
    },
    {
      "anonymous": false,
      "inputs": [
        {
          "indexed": false,
          "name": "token",
          "type": "address"
        },
        {
          "indexed": false,
          "name": "controller",
          "type": "address"
        },
        {
          "indexed": false,
          "name": "registry",
          "type": "address"
        },
        {
          "indexed": false,
          "name": "owner",
          "type": "address"
        },
        {
          "indexed": false,
          "name": "createdAt",
          "type": "uint256"
        }
      ],
      "name": "NewVTF",
      "type": "event"
    },
    {
      "anonymous": false,
      "inputs": [],
      "name": "Pause",
      "type": "event"
    },
    {
      "anonymous": false,
      "inputs": [],
      "name": "Unpause",
      "type": "event"
    },
    {
      "anonymous": false,
      "inputs": [
        {
          "indexed": true,
          "name": "previousOwner",
          "type": "address"
        }
      ],
      "name": "OwnershipRenounced",
      "type": "event"
    },
    {
      "anonymous": false,
      "inputs": [
        {
          "indexed": true,
          "name": "previousOwner",
          "type": "address"
        },
        {
          "indexed": true,
          "name": "newOwner",
          "type": "address"
        }
      ],
      "name": "OwnershipTransferred",
      "type": "event"
    },
    {
      "constant": false,
      "inputs": [
        {
          "name": "_name",
          "type": "string"
        },
        {
          "name": "_symbol",
          "type": "string"
        },
        {
          "name": "_decimal",
          "type": "uint8"
        },
        {
          "name": "_totalSupply",
          "type": "uint256"
        },
        {
          "name": "_createdAt",
          "type": "uint256"
        },
        {
          "name": "_regulation",
          "type": "string"
        }
      ],
      "name": "create",
      "outputs": [
        {
          "name": "",
          "type": "address"
        },
        {
          "name": "",
          "type": "address"
        },
        {
          "name": "",
          "type": "address"
        }
      ],
      "payable": false,
      "stateMutability": "nonpayable",
      "type": "function"
    }
  ],
  "bytecode": "0x608060405260008054600160a860020a03191633179055614086806100256000396000f3006080604052600436106100a35763ffffffff7c01000000000000000000000000000000000000000000000000000000006000350416633f4ba83a81146100a85780634b24ea47146100bf5780635c975abb146100f0578063715018a6146101195780638456cb591461012e5780638da5cb5b1461014357806391eecbbe146101585780639d76ea581461026d578063ed9aab5114610282578063f2fde38b14610297575b600080fd5b3480156100b457600080fd5b506100bd6102b8565b005b3480156100cb57600080fd5b506100d461033f565b60408051600160a060020a039092168252519081900360200190f35b3480156100fc57600080fd5b5061010561034e565b604080519115158252519081900360200190f35b34801561012557600080fd5b506100bd61036f565b34801561013a57600080fd5b506100bd6103db565b34801561014f57600080fd5b506100d4610478565b34801561016457600080fd5b506040805160206004803580820135601f810184900484028501840190955284845261024294369492936024939284019190819084018382808284375050604080516020601f89358b018035918201839004830284018301909452808352979a99988101979196509182019450925082915084018382808284375050604080516020601f60608a01358b0180359182018390048302840183018552818452989b60ff8b35169b838c01359b958601359a9199509750608090940195509193509182019181908401838280828437509497506104879650505050505050565b60408051600160a060020a039485168152928416602084015292168183015290519081900360600190f35b34801561027957600080fd5b506100d46107d9565b34801561028e57600080fd5b506100d46107e8565b3480156102a357600080fd5b506100bd600160a060020a03600435166107f7565b600054600160a060020a031633146102cf57600080fd5b60005474010000000000000000000000000000000000000000900460ff1615156102f857600080fd5b6000805474ff0000000000000000000000000000000000000000191681556040517f7805862f689e2f13df9f062ff482ad3ad112aca9e0847911ed832e158c525b339190a1565b600154600160a060020a031681565b60005474010000000000000000000000000000000000000000900460ff1681565b600054600160a060020a0316331461038657600080fd5b60008054604051600160a060020a03909116917ff8df31144d9c2f0f6b59d69b8b98abd5459d07f2742c4df920b25aae33c6482091a26000805473ffffffffffffffffffffffffffffffffffffffff19169055565b600054600160a060020a031633146103f257600080fd5b60005474010000000000000000000000000000000000000000900460ff161561041a57600080fd5b6000805474ff00000000000000000000000000000000000000001916740100000000000000000000000000000000000000001781556040517f6985a02210a168e66602d3235cb6db0e70f92b3ba4d376a33c0f3d9434bff6259190a1565b600054600160a060020a031681565b6000806000806060600080600060149054906101000a900460ff161515156104ae57600080fd5b6104b6610897565b604051809103906000f0801580156104d2573d6000803e3d6000fd5b50604080516001808252818301909252919550602080830190803883390190505092508383600081518110151561050557fe5b600160a060020a039092166020928302909101909101528260016105276108a8565b60208082018390526040808352845190830152835182916060830191868201910280838360005b8381101561056657818101518382015260200161054e565b505050509050019350505050604051809103906000f08015801561058e573d6000803e3d6000fd5b509150818d8d8d8d8d8d6105a06108b9565b600160a060020a038816815260ff851660608201526080810184905260a0810183905260e060208083018281528951928401929092528851604084019160c08501916101008601918c019080838360005b838110156106095781810151838201526020016105f1565b50505050905090810190601f1680156106365780820380516001836020036101000a031916815260200191505b5084810383528951815289516020918201918b019080838360005b83811015610669578181015183820152602001610651565b50505050905090810190601f1680156106965780820380516001836020036101000a031916815260200191505b50848103825285518152855160209182019187019080838360005b838110156106c95781810151838201526020016106b1565b50505050905090810190601f1680156106f65780820380516001836020036101000a031916815260200191505b509a5050505050505050505050604051809103906000f08015801561071f573d6000803e3d6000fd5b5060408051600160a060020a038084168252808616602083015287168183015233606082015242608082015290519192507f783ef7e7750194f23c6ccb72905d62cbf681db3c343853059e670f0929e0acdf919081900360a00190a160018054600160a060020a0393841673ffffffffffffffffffffffffffffffffffffffff1991821617909155600280549284169282169290921790915560038054949092169316929092179091555091989097509095509350505050565b600254600160a060020a031681565b600354600160a060020a031681565b600054600160a060020a0316331461080e57600080fd5b6108178161081a565b50565b600160a060020a038116151561082f57600080fd5b60008054604051600160a060020a03808516939216917f8be0079c531659141344cd1fd0a4f28419497f9722a3daafe3b4186f6b6457e091a36000805473ffffffffffffffffffffffffffffffffffffffff1916600160a060020a0392909216919091179055565b604051610ce080620008cb83390190565b6040516117af80620015ab83390190565b6040516113018062002d5a833901905600608060405234801561001057600080fd5b5060008054600160a060020a0319163390811790915561003a9060016401000000006100e7810204565b61008e307f72656769737472792e74797065000000000000000000000000000000000000007f706f7274616c0000000000000000000000000000000000000000000000000000640100000000610160810204565b6100e2307f766572696669636174696f6e2e747970650000000000000000000000000000007f4b59430000000000000000000000000000000000000000000000000000000000640100000000610160810204565b6102ba565b600054600160a060020a031633146100fe57600080fd5b600160a060020a038216600081815260016020908152604091829020805460ff1916851515908117909155825142815292519093927f1490bf5846abf8a5f02ba05428324b614a1be3b07a78f2feb69e0f7841aea90592908290030190a35050565b61017233640100000000610220810204565b151561017d57600080fd5b600160a060020a038316600090815260046020908152604080832085845290915290208190556101b58264010000000061023e810204565b15156101cf576101cd82640100000000610253810204565b505b604080518381526020810183905242818301529051600160a060020a0385169130917f49890ae13d6876dce3fbc8b113103a50c2056e3da74bc468a05aca685050d5589181900360600190a3505050565b600160a060020a031660009081526001602052604090205460ff1690565b60009081526003602052604090205460ff1690565b60008054600160a060020a0316331461026b57600080fd5b6002805460018181019092557f405787fa12a823e0f2b7631cc41b3ba8828b3321ca811111fa75cd3aa3bb5ace01839055600092835260036020526040909220805460ff191690921790915590565b610a17806102c96000396000f3006080604052600436106100da5763ffffffff7c0100000000000000000000000000000000000000000000000000000000600035041663170c699981146100df57806329092d0e146101155780632f6968c01461013857806364ff30041461014d5780636d44a3b2146101745780636d70f7ae1461019a578063715018a6146101cf5780637338c25c146101e45780638da5cb5b146102085780639a6f250b14610239578063c93ca9c5146102f3578063d05dcc6a1461030b578063d916d4e214610323578063db6d232f14610338578063f2fde38b1461035f575b600080fd5b3480156100eb57600080fd5b50610103600160a060020a0360043516602435610380565b60408051918252519081900360200190f35b34801561012157600080fd5b50610136600160a060020a036004351661039d565b005b34801561014457600080fd5b50610103610452565b34801561015957600080fd5b50610136600160a060020a0360043516602435604435610476565b34801561018057600080fd5b50610136600160a060020a0360043516602435151561051b565b3480156101a657600080fd5b506101bb600160a060020a0360043516610594565b604080519115158252519081900360200190f35b3480156101db57600080fd5b506101366105b2565b3480156101f057600080fd5b506101bb600160a060020a036004351660243561061e565b34801561021457600080fd5b5061021d610648565b60408051600160a060020a039092168252519081900360200190f35b34801561024557600080fd5b5061025a600160a060020a0360043516610657565b604051808060200180602001838103835285818151815260200191508051906020019060200280838360005b8381101561029e578181015183820152602001610286565b50505050905001838103825284818151815260200191508051906020019060200280838360005b838110156102dd5781810151838201526020016102c5565b5050505090500194505050505060405180910390f35b3480156102ff57600080fd5b506101bb600435610863565b34801561031757600080fd5b50610103600435610878565b34801561032f57600080fd5b50610103610897565b34801561034457600080fd5b506101bb600160a060020a03600435166024356044356108bb565b34801561036b57600080fd5b50610136600160a060020a03600435166108e4565b600460209081526000928352604080842090915290825290205481565b60006103a833610594565b15156103b357600080fd5b5060005b60025481101561040e57600160a060020a038216600090815260046020526040812060028054919291849081106103ea57fe5b600091825260208083209091015483528201929092526040018120556001016103b7565b604080514281529051600160a060020a0384169130917f53c6138b42c27e0b27ce424b65e1cee1f34e9b9b4e8f28817faf74867e4874389181900360200190a35050565b7f72656769737472792e747970650000000000000000000000000000000000000081565b61047f33610594565b151561048a57600080fd5b600160a060020a038316600090815260046020908152604080832085845290915290208190556104b982610863565b15156104ca576104c882610907565b505b604080518381526020810183905242818301529051600160a060020a0385169130917f49890ae13d6876dce3fbc8b113103a50c2056e3da74bc468a05aca685050d5589181900360600190a3505050565b600054600160a060020a0316331461053257600080fd5b600160a060020a038216600081815260016020908152604091829020805460ff1916851515908117909155825142815292519093927f1490bf5846abf8a5f02ba05428324b614a1be3b07a78f2feb69e0f7841aea90592908290030190a35050565b600160a060020a031660009081526001602052604090205460ff1690565b600054600160a060020a031633146105c957600080fd5b60008054604051600160a060020a03909116917ff8df31144d9c2f0f6b59d69b8b98abd5459d07f2742c4df920b25aae33c6482091a26000805473ffffffffffffffffffffffffffffffffffffffff19169055565b600160a060020a039190911660009081526004602090815260408083209383529290522054151590565b600054600160a060020a031681565b606080600080606080600080606080600280549050975087604051908082528060200260200182016040528015610698578160200160208202803883390190505b509550876040519080825280602002602001820160405280156106c5578160200160208202803883390190505b509450600092505b60025483101561078157600160a060020a038b166000908152600460205260408120600280549192918690811061070057fe5b600091825260208083209091015483528201929092526040019020549650861561077657600280548490811061073257fe5b9060005260206000200154868581518110151561074b57fe5b602090810290910101528451879086908690811061076557fe5b602090810290910101526001909301925b6001909201916106cd565b836040519080825280602002602001820160405280156107ab578160200160208202803883390190505b509150836040519080825280602002602001820160405280156107d8578160200160208202803883390190505b509050600092505b838310156108535785838151811015156107f657fe5b90602001906020020151828481518110151561080e57fe5b60209081029091010152845185908490811061082657fe5b90602001906020020151818481518110151561083e57fe5b602090810290910101526001909201916107e0565b909a909950975050505050505050565b60009081526003602052604090205460ff1690565b600280548290811061088657fe5b600091825260209091200154905081565b7f766572696669636174696f6e2e7479706500000000000000000000000000000081565b600160a060020a0392909216600090815260046020908152604080832093835292905220541490565b600054600160a060020a031633146108fb57600080fd5b6109048161096e565b50565b60008054600160a060020a0316331461091f57600080fd5b6002805460018181019092557f405787fa12a823e0f2b7631cc41b3ba8828b3321ca811111fa75cd3aa3bb5ace01839055600092835260036020526040909220805460ff191690921790915590565b600160a060020a038116151561098357600080fd5b60008054604051600160a060020a03808516939216917f8be0079c531659141344cd1fd0a4f28419497f9722a3daafe3b4186f6b6457e091a36000805473ffffffffffffffffffffffffffffffffffffffff1916600160a060020a03929092169190911790555600a165627a7a72305820910440480449299451f3ef2453ba30243622f45714751624a50b76c9e8b72041002960806040523480156200001157600080fd5b50604051620017af380380620017af833981016040528051602082015160008054600160a060020a0319163317905560048190559101906200005c8264010000000062000064810204565b50506200032c565b60008054606091908190600160a060020a031633146200008357600080fd5b8351604051908082528060200260200182016040528015620000af578160200160208202803883390190505b509250600090505b8351811015620001f5578381815181101515620000d057fe5b906020019060200201519150620000f68262000290640100000000026401000000009004565b15156200010257600080fd5b604080517f7338c25c000000000000000000000000000000000000000000000000000000008152600160a060020a038416600482018190527f72656769737472792e747970650000000000000000000000000000000000000060248301529151637338c25c916044808201926020929091908290030181600087803b1580156200018b57600080fd5b505af1158015620001a0573d6000803e3d6000fd5b505050506040513d6020811015620001b757600080fd5b50511515620001c557600080fd5b818382815181101515620001d557fe5b600160a060020a03909216602092830290910190910152600101620000b7565b82516200020a90600190602086019062000298565b507f231713d8c64bf6acee73123cc6a45a51e73c9b01ed9f3329d32686744b5b522c83426040518080602001838152602001828103825284818151815260200191508051906020019060200280838360005b83811015620002765781810151838201526020016200025c565b50505050905001935050505060405180910390a150505050565b6000903b1190565b828054828255906000526020600020908101928215620002f0579160200282015b82811115620002f05782518254600160a060020a031916600160a060020a03909116178255602090920191600190910190620002b9565b50620002fe92915062000302565b5090565b6200032991905b80821115620002fe578054600160a060020a031916815560010162000309565b90565b611473806200033c6000396000f3006080604052600436106100fb5763ffffffff7c01000000000000000000000000000000000000000000000000000000006000350416631627905581146101005780632f6968c01461013557806335884e5a1461015c578063439f6a5c146101c15780635263e8e4146101e25780636347c9001461029057806366991ef9146102c4578063715018a6146102d957806381b2db50146102f057806384393a0f146103085780638da5cb5b1461035d5780639783f1431461037257806397e2b9af14610387578063b19a8b1d146103ae578063bcd90cb91461043c578063d916d4e2146104ca578063ef9d11f8146104df578063f2fde38b14610500575b600080fd5b34801561010c57600080fd5b50610121600160a060020a0360043516610521565b604080519115158252519081900360200190f35b34801561014157600080fd5b5061014a610529565b60408051918252519081900360200190f35b34801561016857600080fd5b5061017161054d565b60408051602080825283518183015283519192839290830191858101910280838360005b838110156101ad578181015183820152602001610195565b505050509050019250505060405180910390f35b3480156101cd57600080fd5b50610121600160a060020a03600435166105b0565b3480156101ee57600080fd5b506101f7610626565b604051808060200180602001838103835285818151815260200191508051906020019060200280838360005b8381101561023b578181015183820152602001610223565b50505050905001838103825284818151815260200191508051906020019060200280838360005b8381101561027a578181015183820152602001610262565b5050505090500194505050505060405180910390f35b34801561029c57600080fd5b506102a8600435610724565b60408051600160a060020a039092168252519081900360200190f35b3480156102d057600080fd5b5061014a61074c565b3480156102e557600080fd5b506102ee610752565b005b3480156102fc57600080fd5b506102ee6004356107be565b34801561031457600080fd5b50604080516020600480358082013583810280860185019096528085526102ee953695939460249493850192918291850190849080828437509497506108179650505050505050565b34801561036957600080fd5b506102a8610a23565b34801561037e57600080fd5b506101f7610a32565b34801561039357600080fd5b50610121600160a060020a0360043581169060243516610b25565b3480156103ba57600080fd5b50604080516020600480358082013583810280860185019096528085526102ee95369593946024949385019291829185019084908082843750506040805187358901803560208181028481018201909552818452989b9a998901989297509082019550935083925085019084908082843750949750610d019650505050505050565b34801561044857600080fd5b50604080516020600480358082013583810280860185019096528085526102ee95369593946024949385019291829185019084908082843750506040805187358901803560208181028481018201909552818452989b9a998901989297509082019550935083925085019084908082843750949750610ebc9650505050505050565b3480156104d657600080fd5b5061014a611073565b3480156104eb57600080fd5b50610121600160a060020a0360043516611097565b34801561050c57600080fd5b506102ee600160a060020a03600435166110fd565b6000903b1190565b7f72656769737472792e747970650000000000000000000000000000000000000081565b606060018054806020026020016040519081016040528092919081815260200182805480156105a557602002820191906000526020600020905b8154600160a060020a03168152600190910190602001808311610587575b505050505090505b90565b6000610620826002805480602002602001604051908101604052809291908181526020016000905b828210156106175760008481526020908190206040805180820190915260028502909101805482526001908101548284015290835290920191016105d8565b50505050611120565b92915050565b60035460609081908180600083156107195783604051908082528060200260200182016040528015610662578160200160208202803883390190505b5092508360405190808252806020026020018201604052801561068f578160200160208202803883390190505b509150600090505b6003548110156107195760038054829081106106af57fe5b90600052602060002090600202016000015483828151811015156106cf57fe5b6020908102909101015260038054829081106106e757fe5b906000526020600020906002020160010154828281518110151561070757fe5b60209081029091010152600101610697565b509094909350915050565b600180548290811061073257fe5b600091825260209091200154600160a060020a0316905081565b60045490565b600054600160a060020a0316331461076957600080fd5b60008054604051600160a060020a03909116917ff8df31144d9c2f0f6b59d69b8b98abd5459d07f2742c4df920b25aae33c6482091a26000805473ffffffffffffffffffffffffffffffffffffffff19169055565b600054600160a060020a031633146107d557600080fd5b60048190556040805182815242602082015281517f9a71f52a6cf1d6a0a676a538d4131e624fbe0f9146d1ca1c7a31fda3db8c37f7929181900390910190a150565b60008054606091908190600160a060020a0316331461083557600080fd5b8351604051908082528060200260200182016040528015610860578160200160208202803883390190505b509250600090505b835181101561098c57838181518110151561087f57fe5b90602001906020020151915061089482610521565b151561089f57600080fd5b604080517f7338c25c000000000000000000000000000000000000000000000000000000008152600160a060020a038416600482018190527f72656769737472792e747970650000000000000000000000000000000000000060248301529151637338c25c916044808201926020929091908290030181600087803b15801561092757600080fd5b505af115801561093b573d6000803e3d6000fd5b505050506040513d602081101561095157600080fd5b5051151561095e57600080fd5b81838281518110151561096d57fe5b600160a060020a03909216602092830290910190910152600101610868565b825161099f90600190602086019061133c565b507f231713d8c64bf6acee73123cc6a45a51e73c9b01ed9f3329d32686744b5b522c83426040518080602001838152602001828103825284818151815260200191508051906020019060200280838360005b83811015610a095781810151838201526020016109f1565b50505050905001935050505060405180910390a150505050565b600054600160a060020a031681565b60025460609081908180600083156107195783604051908082528060200260200182016040528015610a6e578160200160208202803883390190505b50925083604051908082528060200260200182016040528015610a9b578160200160208202803883390190505b509150600090505b600254811015610719576002805482908110610abb57fe5b9060005260206000209060020201600001548382815181101515610adb57fe5b602090810290910101526002805482908110610af357fe5b9060005260206000209060020201600101548282815181101515610b1357fe5b60209081029091010152600101610aa3565b60045460009015610cf857610b9482600380548060200260200160405190810160405280929190818152602001600090828210156106175760008481526020908190206040805180820190915260028502909101805482526001908101548284015290835290920191016105d8565b1515610c2757604080517f08c379a000000000000000000000000000000000000000000000000000000000815260206004820152602d60248201527f53656e64657220686173206e6f74206265656e20617574686f72697a6564207460448201527f6f2073656e6420746f6b656e7300000000000000000000000000000000000000606482015290519081900360840190fd5b610c8b83600280548060200260200160405190810160405280929190818152602001600090828210156106175760008481526020908190206040805180820190915260028502909101805482526001908101548284015290835290920191016105d8565b1515610cf857604080517f08c379a000000000000000000000000000000000000000000000000000000000815260206004820152601960248201527f526563656976657220776173206e6f7420766572696669656400000000000000604482015290519081900360640190fd5b50600192915050565b6000610d0b6113ae565b60008054600160a060020a03163314610d2357600080fd5b845184519093508314610d3557600080fd5b6000610d426002826113c5565b50821515610da2576040805142815290517f6e6f20726571756972656d656e747300000000000000000000000000000000009182917fd17e0d52666aa4455ba1a6e77a678545be8637d6ccb6990a12bd9e4e0e1320819181900360200190a35b5060005b82811015610eb5578481815181101515610dbc57fe5b6020908102909101015182528351849082908110610dd657fe5b6020908102909101810151908301908152600280546001810182556000829052845191027f405787fa12a823e0f2b7631cc41b3ba8828b3321ca811111fa75cd3aa3bb5ace81019190915590517f405787fa12a823e0f2b7631cc41b3ba8828b3321ca811111fa75cd3aa3bb5acf909101558351849082908110610e5657fe5b602090810290910101518551869083908110610e6e57fe5b602090810290910181015160408051428152905191927fd17e0d52666aa4455ba1a6e77a678545be8637d6ccb6990a12bd9e4e0e13208192918290030190a3600101610da6565b5050505050565b6000610ec66113ae565b60008054600160a060020a03163314610ede57600080fd5b845184519093508314610ef057600080fd5b6000610efd6003826113c5565b50821515610f5d576040805142815290517f6e6f20726571756972656d656e747300000000000000000000000000000000009182917f861921b3bed2281a34bb0ceabf5e40c6f122d1919629718da622931925f2a8169181900360200190a35b5060005b82811015610eb5578481815181101515610f7757fe5b6020908102909101015182528351849082908110610f9157fe5b6020908102919091018101519083019081526003805460018101825560009190915283517fc2575a0e9e593c00f959f8c92f12db2869c3395a3b0502d05e2516446f71f85b60029092029182015590517fc2575a0e9e593c00f959f8c92f12db2869c3395a3b0502d05e2516446f71f85c90910155835184908290811061101457fe5b60209081029091010151855186908390811061102c57fe5b602090810290910181015160408051428152905191927f861921b3bed2281a34bb0ceabf5e40c6f122d1919629718da622931925f2a81692918290030190a3600101610f61565b7f766572696669636174696f6e2e7479706500000000000000000000000000000081565b600061062082600380548060200260200160405190810160405280929190818152602001600090828210156106175760008481526020908190206040805180820190915260028502909101805482526001908101548284015290835290920191016105d8565b600054600160a060020a0316331461111457600080fd5b61111d816112bf565b50565b60008060008060006111306113ae565b60008088516000141561114657600097506112b2565b88519650600091505b6001548210156112ad57600180548390811061116757fe5b6000918252602082200154909650600160a060020a031693508590505b8681101561128257888181518110151561119a57fe5b90602001906020020151925083600160a060020a031663db6d232f8b856000015186602001516040518463ffffffff167c01000000000000000000000000000000000000000000000000000000000281526004018084600160a060020a0316600160a060020a03168152602001836000191660001916815260200182600019166000191681526020019350505050602060405180830381600087803b15801561124257600080fd5b505af1158015611256573d6000803e3d6000fd5b505050506040513d602081101561126c57600080fd5b50511561127a576001909501945b600101611184565b868610611290576001909401935b60045485106112a257600197506112b2565b60019091019061114f565b600097505b5050505050505092915050565b600160a060020a03811615156112d457600080fd5b60008054604051600160a060020a03808516939216917f8be0079c531659141344cd1fd0a4f28419497f9722a3daafe3b4186f6b6457e091a36000805473ffffffffffffffffffffffffffffffffffffffff1916600160a060020a0392909216919091179055565b82805482825590600052602060002090810192821561139e579160200282015b8281111561139e578251825473ffffffffffffffffffffffffffffffffffffffff1916600160a060020a0390911617825560209092019160019091019061135c565b506113aa9291506113f6565b5090565b604080518082019091526000808252602082015290565b8154818355818111156113f1576002028160020283600052602060002091820191016113f19190611427565b505050565b6105ad91905b808211156113aa57805473ffffffffffffffffffffffffffffffffffffffff191681556001016113fc565b6105ad91905b808211156113aa576000808255600182015560020161142d5600a165627a7a7230582088135bbe0b36a9938731fd09f191185d2f67d4cb12cb05c5bb5a0ff77459492a002960806040526003805460a060020a60ff02191690553480156200002157600080fd5b5060405162001301380380620013018339810160409081528151602080840151928401516060850151608086015160a087015160c088015160038054600160a060020a03191633179055968801805196989097948101969395929491939101918791879187916200009991600491908601906200023e565b508151620000af9060059060208501906200023e565b506006805460ff191660ff9290921691909117905550620000db90508764010000000062000116810204565b508051620000f19060079060208401906200023e565b505060085560018190553360009081526020819052604090205550620002e392505050565b600354600090600160a060020a031633146200013157600080fd5b600654600160a060020a03838116610100909204161415620001da57604080517f08c379a000000000000000000000000000000000000000000000000000000000815260206004820152602160248201527f436f6e74726f6c6c65722073686f756c64206e6f74206265207468652073616d60448201527f6500000000000000000000000000000000000000000000000000000000000000606482015290519081900360840190fd5b6006805461010060a860020a031916610100600160a060020a038516908102919091179091556040805191825242602083015280517f8cf1cbc25758c16f47e27029c8104e5be712c49e9baaf12c1fd697a91b4316809281900390910190a1919050565b828054600181600116156101000203166002900490600052602060002090601f016020900481019282601f106200028157805160ff1916838001178555620002b1565b82800160010185558215620002b1579182015b82811115620002b157825182559160200191906001019062000294565b50620002bf929150620002c3565b5090565b620002e091905b80821115620002bf5760008155600101620002ca565b90565b61100e80620002f36000396000f30060806040526004361061011c5763ffffffff7c010000000000000000000000000000000000000000000000000000000060003504166306fdde038114610121578063095ea7b3146101ab57806318160ddd146101e357806323b872dd1461020a5780633018205f14610234578063313ce567146102655780633cebb823146102905780633f4ba83a146102b15780635c975abb146102c857806366188463146102dd57806370a0823114610301578063715018a614610322578063789c637c146103375780638456cb591461034c5780638da5cb5b1461036157806395d89b4114610376578063a9059cbb1461038b578063cf09e0d0146103af578063d73dd623146103c4578063dd62ed3e146103e8578063f2fde38b1461040f575b600080fd5b34801561012d57600080fd5b50610136610430565b6040805160208082528351818301528351919283929083019185019080838360005b83811015610170578181015183820152602001610158565b50505050905090810190601f16801561019d5780820380516001836020036101000a031916815260200191505b509250505060405180910390f35b3480156101b757600080fd5b506101cf600160a060020a03600435166024356104be565b604080519115158252519081900360200190f35b3480156101ef57600080fd5b506101f86104e9565b60408051918252519081900360200190f35b34801561021657600080fd5b506101cf600160a060020a03600435811690602435166044356104ef565b34801561024057600080fd5b506102496105b0565b60408051600160a060020a039092168252519081900360200190f35b34801561027157600080fd5b5061027a6105c4565b6040805160ff9092168252519081900360200190f35b34801561029c57600080fd5b50610249600160a060020a03600435166105cd565b3480156102bd57600080fd5b506102c6610700565b005b3480156102d457600080fd5b506101cf610778565b3480156102e957600080fd5b506101cf600160a060020a0360043516602435610788565b34801561030d57600080fd5b506101f8600160a060020a03600435166107ac565b34801561032e57600080fd5b506102c66107c7565b34801561034357600080fd5b50610136610835565b34801561035857600080fd5b506102c6610890565b34801561036d57600080fd5b5061024961090d565b34801561038257600080fd5b5061013661091c565b34801561039757600080fd5b506101cf600160a060020a0360043516602435610977565b3480156103bb57600080fd5b506101f8610a34565b3480156103d057600080fd5b506101cf600160a060020a0360043516602435610a3a565b3480156103f457600080fd5b506101f8600160a060020a0360043581169060243516610a5e565b34801561041b57600080fd5b506102c6600160a060020a0360043516610a89565b6004805460408051602060026001851615610100026000190190941693909304601f810184900484028201840190925281815292918301828280156104b65780601f1061048b576101008083540402835291602001916104b6565b820191906000526020600020905b81548152906001019060200180831161049957829003601f168201915b505050505081565b60035460009060a060020a900460ff16156104d857600080fd5b6104e28383610aac565b9392505050565b60015490565b600654604080517f97e2b9af000000000000000000000000000000000000000000000000000000008152600160a060020a038581166004830152868116602483015291516000936101009004909216916397e2b9af9160448082019260209290919082900301818787803b15801561056657600080fd5b505af115801561057a573d6000803e3d6000fd5b505050506040513d602081101561059057600080fd5b5051151561059d57600080fd5b6105a8848484610b12565b509392505050565b6006546101009004600160a060020a031690565b60065460ff1681565b600354600090600160a060020a031633146105e757600080fd5b600654600160a060020a0383811661010090920416141561068f57604080517f08c379a000000000000000000000000000000000000000000000000000000000815260206004820152602160248201527f436f6e74726f6c6c65722073686f756c64206e6f74206265207468652073616d60448201527f6500000000000000000000000000000000000000000000000000000000000000606482015290519081900360840190fd5b6006805474ffffffffffffffffffffffffffffffffffffffff001916610100600160a060020a038516908102919091179091556040805191825242602083015280517f8cf1cbc25758c16f47e27029c8104e5be712c49e9baaf12c1fd697a91b4316809281900390910190a1919050565b600354600160a060020a0316331461071757600080fd5b60035460a060020a900460ff16151561072f57600080fd5b6003805474ff0000000000000000000000000000000000000000191690556040517f7805862f689e2f13df9f062ff482ad3ad112aca9e0847911ed832e158c525b3390600090a1565b60035460a060020a900460ff1681565b60035460009060a060020a900460ff16156107a257600080fd5b6104e28383610b3f565b600160a060020a031660009081526020819052604090205490565b600354600160a060020a031633146107de57600080fd5b600354604051600160a060020a03909116907ff8df31144d9c2f0f6b59d69b8b98abd5459d07f2742c4df920b25aae33c6482090600090a26003805473ffffffffffffffffffffffffffffffffffffffff19169055565b6007805460408051602060026001851615610100026000190190941693909304601f810184900484028201840190925281815292918301828280156104b65780601f1061048b576101008083540402835291602001916104b6565b600354600160a060020a031633146108a757600080fd5b60035460a060020a900460ff16156108be57600080fd5b6003805474ff0000000000000000000000000000000000000000191660a060020a1790556040517f6985a02210a168e66602d3235cb6db0e70f92b3ba4d376a33c0f3d9434bff62590600090a1565b600354600160a060020a031681565b6005805460408051602060026001851615610100026000190190941693909304601f810184900484028201840190925281815292918301828280156104b65780601f1061048b576101008083540402835291602001916104b6565b600654604080517f97e2b9af000000000000000000000000000000000000000000000000000000008152600160a060020a03858116600483015233602483015291516000936101009004909216916397e2b9af9160448082019260209290919082900301818787803b1580156109ec57600080fd5b505af1158015610a00573d6000803e3d6000fd5b505050506040513d6020811015610a1657600080fd5b50511515610a2357600080fd5b610a2d8383610c2e565b5092915050565b60085481565b60035460009060a060020a900460ff1615610a5457600080fd5b6104e28383610c52565b600160a060020a03918216600090815260026020908152604080832093909416825291909152205490565b600354600160a060020a03163314610aa057600080fd5b610aa981610ceb565b50565b336000818152600260209081526040808320600160a060020a038716808552908352818420869055815186815291519394909390927f8c5be1e5ebec7d5bd14f71427d1e84f3dd0314c0f7b2291e5b200ac8c7c3b925928290030190a350600192915050565b60035460009060a060020a900460ff1615610b2c57600080fd5b610b37848484610d69565b949350505050565b336000908152600260209081526040808320600160a060020a0386168452909152812054808310610b9357336000908152600260209081526040808320600160a060020a0388168452909152812055610bc8565b610ba3818463ffffffff610ede16565b336000908152600260209081526040808320600160a060020a03891684529091529020555b336000818152600260209081526040808320600160a060020a0389168085529083529281902054815190815290519293927f8c5be1e5ebec7d5bd14f71427d1e84f3dd0314c0f7b2291e5b200ac8c7c3b925929181900390910190a35060019392505050565b60035460009060a060020a900460ff1615610c4857600080fd5b6104e28383610ef0565b336000908152600260209081526040808320600160a060020a0386168452909152812054610c86908363ffffffff610fcf16565b336000818152600260209081526040808320600160a060020a0389168085529083529281902085905580519485525191937f8c5be1e5ebec7d5bd14f71427d1e84f3dd0314c0f7b2291e5b200ac8c7c3b925929081900390910190a350600192915050565b600160a060020a0381161515610d0057600080fd5b600354604051600160a060020a038084169216907f8be0079c531659141344cd1fd0a4f28419497f9722a3daafe3b4186f6b6457e090600090a36003805473ffffffffffffffffffffffffffffffffffffffff1916600160a060020a0392909216919091179055565b600160a060020a038316600090815260208190526040812054821115610d8e57600080fd5b600160a060020a0384166000908152600260209081526040808320338452909152902054821115610dbe57600080fd5b600160a060020a0383161515610dd357600080fd5b600160a060020a038416600090815260208190526040902054610dfc908363ffffffff610ede16565b600160a060020a038086166000908152602081905260408082209390935590851681522054610e31908363ffffffff610fcf16565b600160a060020a03808516600090815260208181526040808320949094559187168152600282528281203382529091522054610e73908363ffffffff610ede16565b600160a060020a03808616600081815260026020908152604080832033845282529182902094909455805186815290519287169391927fddf252ad1be2c89b69c2b068fc378daa952ba7f163c4a11628f55a4df523b3ef929181900390910190a35060019392505050565b600082821115610eea57fe5b50900390565b33600090815260208190526040812054821115610f0c57600080fd5b600160a060020a0383161515610f2157600080fd5b33600090815260208190526040902054610f41908363ffffffff610ede16565b3360009081526020819052604080822092909255600160a060020a03851681522054610f73908363ffffffff610fcf16565b600160a060020a038416600081815260208181526040918290209390935580518581529051919233927fddf252ad1be2c89b69c2b068fc378daa952ba7f163c4a11628f55a4df523b3ef9281900390910190a350600192915050565b81810182811015610fdc57fe5b929150505600a165627a7a72305820fa39bd92ae50273b90e605db43409f599418d8eb7ac4579a31bb0ea3a59aedf00029a165627a7a72305820a29a1e0fdcd85abf5e30ca7e678216e406353c101762170cf09e5e019fc093d50029",
  "source": "pragma solidity ^0.4.24;\n\n/*\n * @title: VTF factory\n * Factory to initialize token, controller, registry contract\n * Created on 2019-01, by Bankorus, NZ\n */\n\nimport \"openzeppelin-solidity/contracts/lifecycle/Pausable.sol\";\n\nimport './interfaces/IRegistry.sol';\nimport './interfaces/IController.sol';\nimport './interfaces/IToken.sol';\n\nimport './Registry.sol';\nimport './BankorusToken.sol';\nimport './Controller.sol';\n\ncontract BankorusFactory is Pausable {\n    address public controllerAddress;\n    address public tokenAddress;\n    address public registryAddress;\n    event NewVTF(address token, address controller, address registry, address owner, uint256 createdAt);\n    function create(\n        string _name,\n        string _symbol, \n        uint8 _decimal,\n        uint256 _totalSupply, \n        uint256 _createdAt, \n        string _regulation\n    ) \n    public\n    whenNotPaused \n    returns(address, address, address) \n    {\n        IRegistry registry = new Registry();\n        IRegistry[] memory registries = new IRegistry[](1);\n        registries[0] = IRegistry(registry);\n        IController controller = new Controller(registries, 1);\n        \n        IToken token = new BankorusToken(\n            IController(controller), \n            _name, \n            _symbol, \n            _decimal,\n            _totalSupply,\n            _createdAt, \n            _regulation\n        );\n        \n        emit NewVTF(token, controller, registry, msg.sender, now);\n        controllerAddress = address(controller);\n        tokenAddress = address(token);\n        registryAddress = address(registry);\n    }\n}",
  "sourcePath": "/Users/pengliu/work/bankorus_sto/VerifiedToken-master/contracts/BankorusFactory.sol",
  "compiler": {
    "name": "solc",
    "version": "0.4.24+commit.e67f0147.Emscripten.clang"
  },
  "schemaVersion": "3.0.0",
  "updatedAt": "2019-01-09T07:49:42.815Z",
  "devdoc": {
    "methods": {
      "pause()": {
        "details": "called by the owner to pause, triggers stopped state"
      },
      "renounceOwnership()": {
        "details": "Allows the current owner to relinquish control of the contract."
      },
      "transferOwnership(address)": {
        "details": "Allows the current owner to transfer control of the contract to a newOwner.",
        "params": {
          "_newOwner": "The address to transfer ownership to."
        }
      },
      "unpause()": {
        "details": "called by the owner to unpause, returns to normal state"
      }
    }
  },
  "userdoc": {
    "methods": {
      "renounceOwnership()": {
        "notice": "Renouncing to ownership will leave the contract without an owner. It will not be possible to call the functions with the `onlyOwner` modifier anymore."
      }
    }
  }
}