{
  "contractName": "Controller",
  "abi": [
    {
      "constant": true,
      "inputs": [],
      "name": "REGISTRY_TYPE",
      "outputs": [
        {
          "name": "",
          "type": "bytes32"
        }
      ],
      "payable": false,
      "stateMutability": "view",
      "type": "function"
    },
    {
      "constant": true,
      "inputs": [
        {
          "name": "",
          "type": "uint256"
        }
      ],
      "name": "registries",
      "outputs": [
        {
          "name": "",
          "type": "address"
        }
      ],
      "payable": false,
      "stateMutability": "view",
      "type": "function"
    },
    {
      "constant": false,
      "inputs": [],
      "name": "renounceOwnership",
      "outputs": [],
      "payable": false,
      "stateMutability": "nonpayable",
      "type": "function"
    },
    {
      "constant": true,
      "inputs": [],
      "name": "owner",
      "outputs": [
        {
          "name": "",
          "type": "address"
        }
      ],
      "payable": false,
      "stateMutability": "view",
      "type": "function"
    },
    {
      "constant": true,
      "inputs": [],
      "name": "VERIFICATION_TYPE",
      "outputs": [
        {
          "name": "",
          "type": "bytes32"
        }
      ],
      "payable": false,
      "stateMutability": "view",
      "type": "function"
    },
    {
      "constant": false,
      "inputs": [
        {
          "name": "_newOwner",
          "type": "address"
        }
      ],
      "name": "transferOwnership",
      "outputs": [],
      "payable": false,
      "stateMutability": "nonpayable",
      "type": "function"
    },
    {
      "inputs": [
        {
          "name": "_registries",
          "type": "address[]"
        },
        {
          "name": "_confirmationsRequired",
          "type": "uint256"
        }
      ],
      "payable": false,
      "stateMutability": "nonpayable",
      "type": "constructor"
    },
    {
      "anonymous": false,
      "inputs": [
        {
          "indexed": false,
          "name": "confirmations",
          "type": "uint256"
        },
        {
          "indexed": false,
          "name": "updatedAt",
          "type": "uint256"
        }
      ],
      "name": "RequiredConfirmationsUpdated",
      "type": "event"
    },
    {
      "anonymous": false,
      "inputs": [
        {
          "indexed": true,
          "name": "key",
          "type": "bytes32"
        },
        {
          "indexed": true,
          "name": "value",
          "type": "bytes32"
        },
        {
          "indexed": false,
          "name": "updatedAt",
          "type": "uint256"
        }
      ],
      "name": "RequiredDataUpdated",
      "type": "event"
    },
    {
      "anonymous": false,
      "inputs": [
        {
          "indexed": false,
          "name": "registries",
          "type": "address[]"
        },
        {
          "indexed": false,
          "name": "updatedAt",
          "type": "uint256"
        }
      ],
      "name": "AcceptedRegistriesUpdated",
      "type": "event"
    },
    {
      "anonymous": false,
      "inputs": [
        {
          "indexed": true,
          "name": "previousOwner",
          "type": "address"
        }
      ],
      "name": "OwnershipRenounced",
      "type": "event"
    },
    {
      "anonymous": false,
      "inputs": [
        {
          "indexed": true,
          "name": "previousOwner",
          "type": "address"
        },
        {
          "indexed": true,
          "name": "newOwner",
          "type": "address"
        }
      ],
      "name": "OwnershipTransferred",
      "type": "event"
    },
    {
      "anonymous": false,
      "inputs": [
        {
          "indexed": true,
          "name": "key",
          "type": "bytes32"
        },
        {
          "indexed": true,
          "name": "value",
          "type": "bytes32"
        },
        {
          "indexed": false,
          "name": "updatedAt",
          "type": "uint256"
        }
      ],
      "name": "ReceiverRequirementsUpdated",
      "type": "event"
    },
    {
      "anonymous": false,
      "inputs": [
        {
          "indexed": true,
          "name": "key",
          "type": "bytes32"
        },
        {
          "indexed": true,
          "name": "value",
          "type": "bytes32"
        },
        {
          "indexed": false,
          "name": "updatedAt",
          "type": "uint256"
        }
      ],
      "name": "SenderRequirementsUpdated",
      "type": "event"
    },
    {
      "constant": false,
      "inputs": [
        {
          "name": "_registries",
          "type": "address[]"
        }
      ],
      "name": "updateRegistries",
      "outputs": [],
      "payable": false,
      "stateMutability": "nonpayable",
      "type": "function"
    },
    {
      "constant": false,
      "inputs": [
        {
          "name": "_confirmationsRequired",
          "type": "uint256"
        }
      ],
      "name": "updateRequiredConfirmations",
      "outputs": [],
      "payable": false,
      "stateMutability": "nonpayable",
      "type": "function"
    },
    {
      "constant": false,
      "inputs": [
        {
          "name": "_attributes",
          "type": "bytes32[]"
        },
        {
          "name": "_values",
          "type": "bytes32[]"
        }
      ],
      "name": "updateReceiverRequirements",
      "outputs": [],
      "payable": false,
      "stateMutability": "nonpayable",
      "type": "function"
    },
    {
      "constant": false,
      "inputs": [
        {
          "name": "_attributes",
          "type": "bytes32[]"
        },
        {
          "name": "_values",
          "type": "bytes32[]"
        }
      ],
      "name": "updateSenderRequirements",
      "outputs": [],
      "payable": false,
      "stateMutability": "nonpayable",
      "type": "function"
    },
    {
      "constant": true,
      "inputs": [
        {
          "name": "_receiver",
          "type": "address"
        },
        {
          "name": "_sender",
          "type": "address"
        }
      ],
      "name": "isTransferAllowed",
      "outputs": [
        {
          "name": "",
          "type": "bool"
        }
      ],
      "payable": false,
      "stateMutability": "view",
      "type": "function"
    },
    {
      "constant": true,
      "inputs": [
        {
          "name": "_address",
          "type": "address"
        }
      ],
      "name": "isReceiverVerified",
      "outputs": [
        {
          "name": "",
          "type": "bool"
        }
      ],
      "payable": false,
      "stateMutability": "view",
      "type": "function"
    },
    {
      "constant": true,
      "inputs": [
        {
          "name": "_address",
          "type": "address"
        }
      ],
      "name": "isSenderVerified",
      "outputs": [
        {
          "name": "",
          "type": "bool"
        }
      ],
      "payable": false,
      "stateMutability": "view",
      "type": "function"
    },
    {
      "constant": true,
      "inputs": [
        {
          "name": "addr",
          "type": "address"
        }
      ],
      "name": "isContract",
      "outputs": [
        {
          "name": "",
          "type": "bool"
        }
      ],
      "payable": false,
      "stateMutability": "view",
      "type": "function"
    },
    {
      "constant": true,
      "inputs": [],
      "name": "getNumberOfConfirmationsRequired",
      "outputs": [
        {
          "name": "",
          "type": "uint256"
        }
      ],
      "payable": false,
      "stateMutability": "view",
      "type": "function"
    },
    {
      "constant": true,
      "inputs": [],
      "name": "getReceiverRequirements",
      "outputs": [
        {
          "name": "",
          "type": "bytes32[]"
        },
        {
          "name": "",
          "type": "bytes32[]"
        }
      ],
      "payable": false,
      "stateMutability": "view",
      "type": "function"
    },
    {
      "constant": true,
      "inputs": [],
      "name": "getSenderRequirements",
      "outputs": [
        {
          "name": "",
          "type": "bytes32[]"
        },
        {
          "name": "",
          "type": "bytes32[]"
        }
      ],
      "payable": false,
      "stateMutability": "view",
      "type": "function"
    },
    {
      "constant": true,
      "inputs": [],
      "name": "getRegistries",
      "outputs": [
        {
          "name": "",
          "type": "address[]"
        }
      ],
      "payable": false,
      "stateMutability": "view",
      "type": "function"
    }
  ],
  "bytecode": "0x60806040523480156200001157600080fd5b50604051620017af380380620017af833981016040528051602082015160008054600160a060020a0319163317905560048190559101906200005c8264010000000062000064810204565b50506200032c565b60008054606091908190600160a060020a031633146200008357600080fd5b8351604051908082528060200260200182016040528015620000af578160200160208202803883390190505b509250600090505b8351811015620001f5578381815181101515620000d057fe5b906020019060200201519150620000f68262000290640100000000026401000000009004565b15156200010257600080fd5b604080517f7338c25c000000000000000000000000000000000000000000000000000000008152600160a060020a038416600482018190527f72656769737472792e747970650000000000000000000000000000000000000060248301529151637338c25c916044808201926020929091908290030181600087803b1580156200018b57600080fd5b505af1158015620001a0573d6000803e3d6000fd5b505050506040513d6020811015620001b757600080fd5b50511515620001c557600080fd5b818382815181101515620001d557fe5b600160a060020a03909216602092830290910190910152600101620000b7565b82516200020a90600190602086019062000298565b507f231713d8c64bf6acee73123cc6a45a51e73c9b01ed9f3329d32686744b5b522c83426040518080602001838152602001828103825284818151815260200191508051906020019060200280838360005b83811015620002765781810151838201526020016200025c565b50505050905001935050505060405180910390a150505050565b6000903b1190565b828054828255906000526020600020908101928215620002f0579160200282015b82811115620002f05782518254600160a060020a031916600160a060020a03909116178255602090920191600190910190620002b9565b50620002fe92915062000302565b5090565b6200032991905b80821115620002fe578054600160a060020a031916815560010162000309565b90565b611473806200033c6000396000f3006080604052600436106100fb5763ffffffff7c01000000000000000000000000000000000000000000000000000000006000350416631627905581146101005780632f6968c01461013557806335884e5a1461015c578063439f6a5c146101c15780635263e8e4146101e25780636347c9001461029057806366991ef9146102c4578063715018a6146102d957806381b2db50146102f057806384393a0f146103085780638da5cb5b1461035d5780639783f1431461037257806397e2b9af14610387578063b19a8b1d146103ae578063bcd90cb91461043c578063d916d4e2146104ca578063ef9d11f8146104df578063f2fde38b14610500575b600080fd5b34801561010c57600080fd5b50610121600160a060020a0360043516610521565b604080519115158252519081900360200190f35b34801561014157600080fd5b5061014a610529565b60408051918252519081900360200190f35b34801561016857600080fd5b5061017161054d565b60408051602080825283518183015283519192839290830191858101910280838360005b838110156101ad578181015183820152602001610195565b505050509050019250505060405180910390f35b3480156101cd57600080fd5b50610121600160a060020a03600435166105b0565b3480156101ee57600080fd5b506101f7610626565b604051808060200180602001838103835285818151815260200191508051906020019060200280838360005b8381101561023b578181015183820152602001610223565b50505050905001838103825284818151815260200191508051906020019060200280838360005b8381101561027a578181015183820152602001610262565b5050505090500194505050505060405180910390f35b34801561029c57600080fd5b506102a8600435610724565b60408051600160a060020a039092168252519081900360200190f35b3480156102d057600080fd5b5061014a61074c565b3480156102e557600080fd5b506102ee610752565b005b3480156102fc57600080fd5b506102ee6004356107be565b34801561031457600080fd5b50604080516020600480358082013583810280860185019096528085526102ee953695939460249493850192918291850190849080828437509497506108179650505050505050565b34801561036957600080fd5b506102a8610a23565b34801561037e57600080fd5b506101f7610a32565b34801561039357600080fd5b50610121600160a060020a0360043581169060243516610b25565b3480156103ba57600080fd5b50604080516020600480358082013583810280860185019096528085526102ee95369593946024949385019291829185019084908082843750506040805187358901803560208181028481018201909552818452989b9a998901989297509082019550935083925085019084908082843750949750610d019650505050505050565b34801561044857600080fd5b50604080516020600480358082013583810280860185019096528085526102ee95369593946024949385019291829185019084908082843750506040805187358901803560208181028481018201909552818452989b9a998901989297509082019550935083925085019084908082843750949750610ebc9650505050505050565b3480156104d657600080fd5b5061014a611073565b3480156104eb57600080fd5b50610121600160a060020a0360043516611097565b34801561050c57600080fd5b506102ee600160a060020a03600435166110fd565b6000903b1190565b7f72656769737472792e747970650000000000000000000000000000000000000081565b606060018054806020026020016040519081016040528092919081815260200182805480156105a557602002820191906000526020600020905b8154600160a060020a03168152600190910190602001808311610587575b505050505090505b90565b6000610620826002805480602002602001604051908101604052809291908181526020016000905b828210156106175760008481526020908190206040805180820190915260028502909101805482526001908101548284015290835290920191016105d8565b50505050611120565b92915050565b60035460609081908180600083156107195783604051908082528060200260200182016040528015610662578160200160208202803883390190505b5092508360405190808252806020026020018201604052801561068f578160200160208202803883390190505b509150600090505b6003548110156107195760038054829081106106af57fe5b90600052602060002090600202016000015483828151811015156106cf57fe5b6020908102909101015260038054829081106106e757fe5b906000526020600020906002020160010154828281518110151561070757fe5b60209081029091010152600101610697565b509094909350915050565b600180548290811061073257fe5b600091825260209091200154600160a060020a0316905081565b60045490565b600054600160a060020a0316331461076957600080fd5b60008054604051600160a060020a03909116917ff8df31144d9c2f0f6b59d69b8b98abd5459d07f2742c4df920b25aae33c6482091a26000805473ffffffffffffffffffffffffffffffffffffffff19169055565b600054600160a060020a031633146107d557600080fd5b60048190556040805182815242602082015281517f9a71f52a6cf1d6a0a676a538d4131e624fbe0f9146d1ca1c7a31fda3db8c37f7929181900390910190a150565b60008054606091908190600160a060020a0316331461083557600080fd5b8351604051908082528060200260200182016040528015610860578160200160208202803883390190505b509250600090505b835181101561098c57838181518110151561087f57fe5b90602001906020020151915061089482610521565b151561089f57600080fd5b604080517f7338c25c000000000000000000000000000000000000000000000000000000008152600160a060020a038416600482018190527f72656769737472792e747970650000000000000000000000000000000000000060248301529151637338c25c916044808201926020929091908290030181600087803b15801561092757600080fd5b505af115801561093b573d6000803e3d6000fd5b505050506040513d602081101561095157600080fd5b5051151561095e57600080fd5b81838281518110151561096d57fe5b600160a060020a03909216602092830290910190910152600101610868565b825161099f90600190602086019061133c565b507f231713d8c64bf6acee73123cc6a45a51e73c9b01ed9f3329d32686744b5b522c83426040518080602001838152602001828103825284818151815260200191508051906020019060200280838360005b83811015610a095781810151838201526020016109f1565b50505050905001935050505060405180910390a150505050565b600054600160a060020a031681565b60025460609081908180600083156107195783604051908082528060200260200182016040528015610a6e578160200160208202803883390190505b50925083604051908082528060200260200182016040528015610a9b578160200160208202803883390190505b509150600090505b600254811015610719576002805482908110610abb57fe5b9060005260206000209060020201600001548382815181101515610adb57fe5b602090810290910101526002805482908110610af357fe5b9060005260206000209060020201600101548282815181101515610b1357fe5b60209081029091010152600101610aa3565b60045460009015610cf857610b9482600380548060200260200160405190810160405280929190818152602001600090828210156106175760008481526020908190206040805180820190915260028502909101805482526001908101548284015290835290920191016105d8565b1515610c2757604080517f08c379a000000000000000000000000000000000000000000000000000000000815260206004820152602d60248201527f53656e64657220686173206e6f74206265656e20617574686f72697a6564207460448201527f6f2073656e6420746f6b656e7300000000000000000000000000000000000000606482015290519081900360840190fd5b610c8b83600280548060200260200160405190810160405280929190818152602001600090828210156106175760008481526020908190206040805180820190915260028502909101805482526001908101548284015290835290920191016105d8565b1515610cf857604080517f08c379a000000000000000000000000000000000000000000000000000000000815260206004820152601960248201527f526563656976657220776173206e6f7420766572696669656400000000000000604482015290519081900360640190fd5b50600192915050565b6000610d0b6113ae565b60008054600160a060020a03163314610d2357600080fd5b845184519093508314610d3557600080fd5b6000610d426002826113c5565b50821515610da2576040805142815290517f6e6f20726571756972656d656e747300000000000000000000000000000000009182917fd17e0d52666aa4455ba1a6e77a678545be8637d6ccb6990a12bd9e4e0e1320819181900360200190a35b5060005b82811015610eb5578481815181101515610dbc57fe5b6020908102909101015182528351849082908110610dd657fe5b6020908102909101810151908301908152600280546001810182556000829052845191027f405787fa12a823e0f2b7631cc41b3ba8828b3321ca811111fa75cd3aa3bb5ace81019190915590517f405787fa12a823e0f2b7631cc41b3ba8828b3321ca811111fa75cd3aa3bb5acf909101558351849082908110610e5657fe5b602090810290910101518551869083908110610e6e57fe5b602090810290910181015160408051428152905191927fd17e0d52666aa4455ba1a6e77a678545be8637d6ccb6990a12bd9e4e0e13208192918290030190a3600101610da6565b5050505050565b6000610ec66113ae565b60008054600160a060020a03163314610ede57600080fd5b845184519093508314610ef057600080fd5b6000610efd6003826113c5565b50821515610f5d576040805142815290517f6e6f20726571756972656d656e747300000000000000000000000000000000009182917f861921b3bed2281a34bb0ceabf5e40c6f122d1919629718da622931925f2a8169181900360200190a35b5060005b82811015610eb5578481815181101515610f7757fe5b6020908102909101015182528351849082908110610f9157fe5b6020908102919091018101519083019081526003805460018101825560009190915283517fc2575a0e9e593c00f959f8c92f12db2869c3395a3b0502d05e2516446f71f85b60029092029182015590517fc2575a0e9e593c00f959f8c92f12db2869c3395a3b0502d05e2516446f71f85c90910155835184908290811061101457fe5b60209081029091010151855186908390811061102c57fe5b602090810290910181015160408051428152905191927f861921b3bed2281a34bb0ceabf5e40c6f122d1919629718da622931925f2a81692918290030190a3600101610f61565b7f766572696669636174696f6e2e7479706500000000000000000000000000000081565b600061062082600380548060200260200160405190810160405280929190818152602001600090828210156106175760008481526020908190206040805180820190915260028502909101805482526001908101548284015290835290920191016105d8565b600054600160a060020a0316331461111457600080fd5b61111d816112bf565b50565b60008060008060006111306113ae565b60008088516000141561114657600097506112b2565b88519650600091505b6001548210156112ad57600180548390811061116757fe5b6000918252602082200154909650600160a060020a031693508590505b8681101561128257888181518110151561119a57fe5b90602001906020020151925083600160a060020a031663db6d232f8b856000015186602001516040518463ffffffff167c01000000000000000000000000000000000000000000000000000000000281526004018084600160a060020a0316600160a060020a03168152602001836000191660001916815260200182600019166000191681526020019350505050602060405180830381600087803b15801561124257600080fd5b505af1158015611256573d6000803e3d6000fd5b505050506040513d602081101561126c57600080fd5b50511561127a576001909501945b600101611184565b868610611290576001909401935b60045485106112a257600197506112b2565b60019091019061114f565b600097505b5050505050505092915050565b600160a060020a03811615156112d457600080fd5b60008054604051600160a060020a03808516939216917f8be0079c531659141344cd1fd0a4f28419497f9722a3daafe3b4186f6b6457e091a36000805473ffffffffffffffffffffffffffffffffffffffff1916600160a060020a0392909216919091179055565b82805482825590600052602060002090810192821561139e579160200282015b8281111561139e578251825473ffffffffffffffffffffffffffffffffffffffff1916600160a060020a0390911617825560209092019160019091019061135c565b506113aa9291506113f6565b5090565b604080518082019091526000808252602082015290565b8154818355818111156113f1576002028160020283600052602060002091820191016113f19190611427565b505050565b6105ad91905b808211156113aa57805473ffffffffffffffffffffffffffffffffffffffff191681556001016113fc565b6105ad91905b808211156113aa576000808255600182015560020161142d5600a165627a7a7230582088135bbe0b36a9938731fd09f191185d2f67d4cb12cb05c5bb5a0ff77459492a0029",
  "source": "pragma solidity ^0.4.24;\n/*\n * @title: Verified Token Controller\n * Verification management for token owner\n * Setting initial number of confirmations required for each/any type of registry, adding or removing them.\n * Created on 2018-04-26, by Blockchain Labs, NZ\n */\nimport \"openzeppelin-solidity/contracts/ownership/Ownable.sol\";\nimport \"./interfaces/IRegistry.sol\";\nimport \"./interfaces/IController.sol\";\nimport \"./Attributes.sol\";\n\n\ncontract Controller is IController, Attributes, Ownable {\n/*\n * @notice: authorities that trusted by token issuer\n */\n  IRegistry[] public registries;\n\n\t/*\n   * @notice: attribute key and value are stored in 'pairs'\n   */\n  struct pairs {\n    bytes32 attribute;\n    bytes32 value;\n  }\n\n  pairs[] private receiverRequirements;\n  pairs[] private senderRequirements;\n\n  /*\n   * @dev: if zero, no checks will be performed\n   */\n  uint256 private confirmationsRequired;\n\n\n  event RequiredConfirmationsUpdated(\n    uint256 confirmations,\n    uint updatedAt\n  );\n\n  event RequiredDataUpdated(\n    bytes32 indexed key,\n    bytes32 indexed value,\n    uint updatedAt\n  );\n\n  event AcceptedRegistriesUpdated(\n    IRegistry[] registries,\n    uint updatedAt\n  );\n\n\n  /*\n   * @dev: Contract owner must set up registry(ies) to use\n   */\n  constructor(IRegistry[] _registries, uint256 _confirmationsRequired) public {\n    confirmationsRequired = _confirmationsRequired;\n    updateRegistries(_registries);\n  }\n\n  /*\n   * @notice: Owner can add, delete or update the number of confirmations required for each registry\n   * @dev: adding addresses one by one is chosen, because of Solidity (for now) doesn't check\n   * @dev: if the list of addresses is the list of contracts.\n   */\n  function updateRegistries(IRegistry[] _registries) public onlyOwner {\n    IRegistry[] memory contracts = new IRegistry[](_registries.length);\n    IRegistry currentRegistry;\n\n    for (uint256 i = 0; i < _registries.length; i++) {\n      currentRegistry = IRegistry(_registries[i]);\n      require(isContract(currentRegistry));\n      require(currentRegistry.hasAttribute(currentRegistry, REGISTRY_TYPE));\n      contracts[i] = currentRegistry;\n    }\n    registries = contracts;\n    emit AcceptedRegistriesUpdated(contracts, now);\n  }\n\n  /*\n   * @notice: Owner can add, delete or update the number of confirmations required for each registry\n   */\n  function updateRequiredConfirmations(uint256 _confirmationsRequired) public onlyOwner {\n    confirmationsRequired = _confirmationsRequired;\n    emit RequiredConfirmationsUpdated(_confirmationsRequired, now);\n  }\n\n  /*\n   * @notice: Owner can add, delete or update Receiver requirements\n   */\n  function updateReceiverRequirements(bytes32[] _attributes, bytes32[] _values) public onlyOwner {\n    uint256 pairsNumber = _attributes.length;\n    require( pairsNumber == _values.length);\n    pairs memory newPair;\n    receiverRequirements.length = 0;\n\n    if (pairsNumber == 0)\n      emit ReceiverRequirementsUpdated(\"no requirements\", \"no requirements\", now);\n\n    for (uint256 i = 0; i < pairsNumber; i++) {\n      newPair.attribute = _attributes[i];\n      newPair.value =_values[i];\n      receiverRequirements.push(newPair);\n      emit ReceiverRequirementsUpdated(_attributes[i], _values[i], now);\n    }\n  }\n\n  /*\n   * @notice: Owner can add, delete or update Sender requirements\n   */\n  function updateSenderRequirements(bytes32[] _attributes, bytes32[] _values) public onlyOwner{\n    uint256 pairsNumber = _attributes.length;\n    require( pairsNumber == _values.length);\n    pairs memory newPair;\n    senderRequirements.length = 0;\n\n    if (pairsNumber == 0)\n      emit SenderRequirementsUpdated(\"no requirements\", \"no requirements\", now);\n\n    for (uint256 i = 0; i < pairsNumber; i++) {\n      newPair.attribute = _attributes[i];\n      newPair.value =_values[i];\n      senderRequirements.push(newPair);\n      emit SenderRequirementsUpdated(_attributes[i], _values[i], now);\n    }\n  }\n\n  /*\n   * @dev: checks if token transfer is allowed\n   */\n  function isTransferAllowed(address _receiver, address _sender) public view returns(bool) {\n    if(confirmationsRequired != 0) {\n      require(isVerified(_sender, senderRequirements), \"Sender has not been authorized to send tokens\");\n      require(isVerified(_receiver, receiverRequirements), \"Receiver was not verified\");\n    }\n    return true;\n  }\n\n  /*\n   * @dev: checks if Receiver is verified\n   */\n  function isReceiverVerified(address _address) public view returns(bool) {\n    return isVerified(_address, receiverRequirements);\n  }\n\n  /*\n   * @dev: checks if Receiver is verified\n   */\n  function isSenderVerified(address _address) public view returns(bool) {\n    return isVerified(_address, senderRequirements);\n  }\n\n  /*\n   * @dev: checks if the address from appropriate requirements list has attribute=>value pair in the registry\n   */\n  function isVerified(address _address, pairs[] requirements) internal view returns(bool) {\n    if(requirements.length == 0)\n      return false;\n\n    uint256 pairsToConfirm = requirements.length;\n    uint256 pairsConfirmed;\n    uint256 registriesConfirmed;\n    IRegistry registry;\n    pairs memory currentPair;\n\n    for(uint256 i = 0; i < registries.length; i++) {\n      registry = IRegistry(registries[i]);\n      pairsConfirmed = 0;\n\n      for(uint256 j = 0; j < pairsToConfirm; j++) {\n        currentPair = requirements[j];\n        if(registry.verify(_address, currentPair.attribute, currentPair.value))\n          pairsConfirmed++;\n      }\n\n      if (pairsConfirmed >= pairsToConfirm)\n        registriesConfirmed++;\n      if (registriesConfirmed >= confirmationsRequired)\n        return true;\n    }\n    return false;\n  }\n\n  /*\n   * @dev: checks if an address is the contract address\n   */\n  function isContract(address addr) public view returns (bool) {\n    uint size;\n    assembly { size := extcodesize(addr) }\n    return size > 0;\n  }\n\n  /*\n   * @dev: return the number of confirmations required for successful transfer\n   */\n  function getNumberOfConfirmationsRequired() public view returns (uint) {\n    return confirmationsRequired;\n  }\n\n  /*\n   * @dev: return the pairs (attribute=>value) required for Receiver in order to transfer tokens\n   */\n  function getReceiverRequirements() public view returns (bytes32[], bytes32[]) {\n    uint256 numberOfPairs = receiverRequirements.length;\n    if (numberOfPairs != 0) {\n      bytes32[] memory attributes = new bytes32[](numberOfPairs);\n      bytes32[] memory values = new bytes32[](numberOfPairs);\n      for(uint i = 0; i < receiverRequirements.length; i++) {\n          attributes[i] = receiverRequirements[i].attribute;\n          values[i] = receiverRequirements[i].value;\n      }\n    }\n    return (attributes, values);\n  }\n\n  /*\n   * @dev: return the pairs (attribute=>value) required for Sender in order to transfer tokens\n   */\n  function getSenderRequirements() public view returns (bytes32[], bytes32[]) {\n    uint256 numberOfPairs = senderRequirements.length;\n    if (numberOfPairs != 0) {\n      bytes32[] memory attributes = new bytes32[](numberOfPairs);\n      bytes32[] memory values = new bytes32[](numberOfPairs);\n      for(uint i = 0; i < senderRequirements.length; i++) {\n        attributes[i] = senderRequirements[i].attribute;\n        values[i] = senderRequirements[i].value;\n      }\n    }\n    return (attributes, values);\n  }\n\n\n  /*\n   * @dev: return list of registries that assigned by Token Issuer to verify token transfers\n   */\n  function getRegistries() public view returns (IRegistry[]) {\n    return registries;\n  }\n}",
  "sourcePath": "/Users/pengliu/work/bankorus_sto/VerifiedToken-master/contracts/Controller.sol",
  "compiler": {
    "name": "solc",
    "version": "0.4.24+commit.e67f0147.Emscripten.clang"
  },
  "schemaVersion": "3.0.0",
  "updatedAt": "2019-01-08T06:37:39.676Z",
  "devdoc": {
    "methods": {
      "renounceOwnership()": {
        "details": "Allows the current owner to relinquish control of the contract."
      },
      "transferOwnership(address)": {
        "details": "Allows the current owner to transfer control of the contract to a newOwner.",
        "params": {
          "_newOwner": "The address to transfer ownership to."
        }
      }
    }
  },
  "userdoc": {
    "methods": {
      "renounceOwnership()": {
        "notice": "Renouncing to ownership will leave the contract without an owner. It will not be possible to call the functions with the `onlyOwner` modifier anymore."
      }
    }
  }
}