{
  "contractName": "Mock",
  "abi": [
    {
      "constant": false,
      "inputs": [
        {
          "name": "method",
          "type": "string"
        },
        {
          "name": "params",
          "type": "string"
        }
      ],
      "name": "call",
      "outputs": [
        {
          "name": "",
          "type": "bool"
        }
      ],
      "payable": false,
      "stateMutability": "nonpayable",
      "type": "function"
    }
  ],
  "bytecode": "0x608060405234801561001057600080fd5b5061022f806100206000396000f3006080604052600436106100405763ffffffff7c010000000000000000000000000000000000000000000000000000000060003504166379a789bb8114610045575b600080fd5b34801561005157600080fd5b506100716024600480358281019290820135918135918201910135610085565b604080519115158252519081900360200190f35b600061008f610151565b6040805160606020601f89018190040282018101835291810187815290918291908990899081908501838280828437820191505050505050815260200185858080601f01602080910402602001604051908101604052809392919081815260200183838082843750505092909352505033600090815260208181526040909120835180519495508594919350610129928492910190610168565b5060208281015180516101429260018501920190610168565b50600198975050505050505050565b604080518082019091526060808252602082015290565b828054600181600116156101000203166002900490600052602060002090601f016020900481019282601f106101a957805160ff19168380011785556101d6565b828001600101855582156101d6579182015b828111156101d65782518255916020019190600101906101bb565b506101e29291506101e6565b5090565b61020091905b808211156101e257600081556001016101ec565b905600a165627a7a723058207993a05a3d07d95617fdd2b6cf899588176d1943cd4bcad3042f802ce841ad310029",
  "source": "pragma solidity ^0.4.24;\n\n\ncontract Mock {\n  struct Caller {\n    string method;\n    string params;\n  }\n  \n  mapping (address => Caller) internal callers;\n\n  function call(string method, string params) external returns (bool) {\n    Caller memory caller = Caller(method, params);\n\n    callers[msg.sender] = caller;\n    return true;\n  }\n}",
  "sourcePath": "/Users/pengliu/work/bankorus_sto/VerifiedToken-master/contracts/mocks/Mock.sol",
  "compiler": {
    "name": "solc",
    "version": "0.4.24+commit.e67f0147.Emscripten.clang"
  },
  "schemaVersion": "3.0.0",
  "updatedAt": "2019-01-18T02:43:25.397Z",
  "devdoc": {
    "methods": {}
  },
  "userdoc": {
    "methods": {}
  }
}