{
  "contractName": "OperatorMock",
  "abi": [
    {
      "constant": false,
      "inputs": [
        {
          "name": "_operator",
          "type": "address"
        },
        {
          "name": "_status",
          "type": "bool"
        }
      ],
      "name": "updateOperator",
      "outputs": [],
      "payable": false,
      "stateMutability": "nonpayable",
      "type": "function"
    },
    {
      "constant": true,
      "inputs": [
        {
          "name": "_address",
          "type": "address"
        }
      ],
      "name": "isOperator",
      "outputs": [
        {
          "name": "",
          "type": "bool"
        }
      ],
      "payable": false,
      "stateMutability": "view",
      "type": "function"
    },
    {
      "constant": false,
      "inputs": [],
      "name": "renounceOwnership",
      "outputs": [],
      "payable": false,
      "stateMutability": "nonpayable",
      "type": "function"
    },
    {
      "constant": true,
      "inputs": [],
      "name": "owner",
      "outputs": [
        {
          "name": "",
          "type": "address"
        }
      ],
      "payable": false,
      "stateMutability": "view",
      "type": "function"
    },
    {
      "constant": false,
      "inputs": [
        {
          "name": "_newOwner",
          "type": "address"
        }
      ],
      "name": "transferOwnership",
      "outputs": [],
      "payable": false,
      "stateMutability": "nonpayable",
      "type": "function"
    },
    {
      "anonymous": false,
      "inputs": [
        {
          "indexed": true,
          "name": "operator",
          "type": "address"
        },
        {
          "indexed": true,
          "name": "status",
          "type": "bool"
        },
        {
          "indexed": false,
          "name": "updatedAt",
          "type": "uint256"
        }
      ],
      "name": "OperatorStatusUpdated",
      "type": "event"
    },
    {
      "anonymous": false,
      "inputs": [
        {
          "indexed": true,
          "name": "previousOwner",
          "type": "address"
        }
      ],
      "name": "OwnershipRenounced",
      "type": "event"
    },
    {
      "anonymous": false,
      "inputs": [
        {
          "indexed": true,
          "name": "previousOwner",
          "type": "address"
        },
        {
          "indexed": true,
          "name": "newOwner",
          "type": "address"
        }
      ],
      "name": "OwnershipTransferred",
      "type": "event"
    },
    {
      "constant": true,
      "inputs": [],
      "name": "testOnlyOperator",
      "outputs": [
        {
          "name": "",
          "type": "bool"
        }
      ],
      "payable": false,
      "stateMutability": "view",
      "type": "function"
    }
  ],
  "bytecode": "0x608060405260008054600160a060020a0319163317905561034f806100256000396000f3006080604052600436106100775763ffffffff7c01000000000000000000000000000000000000000000000000000000006000350416636d44a3b2811461007c5780636d70f7ae146100a4578063715018a6146100d95780638da5cb5b146100ee578063da1ce9641461011f578063f2fde38b14610134575b600080fd5b34801561008857600080fd5b506100a2600160a060020a03600435166024351515610155565b005b3480156100b057600080fd5b506100c5600160a060020a03600435166101ce565b604080519115158252519081900360200190f35b3480156100e557600080fd5b506100a26101ec565b3480156100fa57600080fd5b50610103610258565b60408051600160a060020a039092168252519081900360200190f35b34801561012b57600080fd5b506100c5610267565b34801561014057600080fd5b506100a2600160a060020a0360043516610283565b600054600160a060020a0316331461016c57600080fd5b600160a060020a038216600081815260016020908152604091829020805460ff1916851515908117909155825142815292519093927f1490bf5846abf8a5f02ba05428324b614a1be3b07a78f2feb69e0f7841aea90592908290030190a35050565b600160a060020a031660009081526001602052604090205460ff1690565b600054600160a060020a0316331461020357600080fd5b60008054604051600160a060020a03909116917ff8df31144d9c2f0f6b59d69b8b98abd5459d07f2742c4df920b25aae33c6482091a26000805473ffffffffffffffffffffffffffffffffffffffff19169055565b600054600160a060020a031681565b6000610272336101ce565b151561027d57600080fd5b50600190565b600054600160a060020a0316331461029a57600080fd5b6102a3816102a6565b50565b600160a060020a03811615156102bb57600080fd5b60008054604051600160a060020a03808516939216917f8be0079c531659141344cd1fd0a4f28419497f9722a3daafe3b4186f6b6457e091a36000805473ffffffffffffffffffffffffffffffffffffffff1916600160a060020a03929092169190911790555600a165627a7a72305820f5a890a8fe18e5d465d3c15878e2f1285b9038c3336ce616e5968f71626d58580029",
  "source": "pragma solidity ^0.4.24;\n\nimport './../Operator.sol';\n\ncontract OperatorMock is Operator {\n    function testOnlyOperator() public view onlyOperator returns(bool) {\n        return true;\n    }\n}\n",
  "sourcePath": "/Users/pengliu/work/bankorus_sto/VerifiedToken-master/contracts/mocks/OperatorMock.sol",
  "compiler": {
    "name": "solc",
    "version": "0.4.24+commit.e67f0147.Emscripten.clang"
  },
  "schemaVersion": "3.0.0",
  "updatedAt": "2019-01-08T06:37:39.683Z",
  "devdoc": {
    "methods": {
      "renounceOwnership()": {
        "details": "Allows the current owner to relinquish control of the contract."
      },
      "transferOwnership(address)": {
        "details": "Allows the current owner to transfer control of the contract to a newOwner.",
        "params": {
          "_newOwner": "The address to transfer ownership to."
        }
      }
    }
  },
  "userdoc": {
    "methods": {
      "renounceOwnership()": {
        "notice": "Renouncing to ownership will leave the contract without an owner. It will not be possible to call the functions with the `onlyOwner` modifier anymore."
      }
    }
  }
}