{
  "contractName": "Token",
  "abi": [
    {
      "constant": false,
      "inputs": [
        {
          "name": "_spender",
          "type": "address"
        },
        {
          "name": "_value",
          "type": "uint256"
        }
      ],
      "name": "approve",
      "outputs": [
        {
          "name": "",
          "type": "bool"
        }
      ],
      "payable": false,
      "stateMutability": "nonpayable",
      "type": "function"
    },
    {
      "constant": true,
      "inputs": [],
      "name": "totalSupply",
      "outputs": [
        {
          "name": "",
          "type": "uint256"
        }
      ],
      "payable": false,
      "stateMutability": "view",
      "type": "function"
    },
    {
      "constant": false,
      "inputs": [
        {
          "name": "_spender",
          "type": "address"
        },
        {
          "name": "_subtractedValue",
          "type": "uint256"
        }
      ],
      "name": "decreaseApproval",
      "outputs": [
        {
          "name": "",
          "type": "bool"
        }
      ],
      "payable": false,
      "stateMutability": "nonpayable",
      "type": "function"
    },
    {
      "constant": true,
      "inputs": [
        {
          "name": "_owner",
          "type": "address"
        }
      ],
      "name": "balanceOf",
      "outputs": [
        {
          "name": "",
          "type": "uint256"
        }
      ],
      "payable": false,
      "stateMutability": "view",
      "type": "function"
    },
    {
      "constant": false,
      "inputs": [],
      "name": "renounceOwnership",
      "outputs": [],
      "payable": false,
      "stateMutability": "nonpayable",
      "type": "function"
    },
    {
      "constant": true,
      "inputs": [],
      "name": "owner",
      "outputs": [
        {
          "name": "",
          "type": "address"
        }
      ],
      "payable": false,
      "stateMutability": "view",
      "type": "function"
    },
    {
      "constant": false,
      "inputs": [
        {
          "name": "_spender",
          "type": "address"
        },
        {
          "name": "_addedValue",
          "type": "uint256"
        }
      ],
      "name": "increaseApproval",
      "outputs": [
        {
          "name": "",
          "type": "bool"
        }
      ],
      "payable": false,
      "stateMutability": "nonpayable",
      "type": "function"
    },
    {
      "constant": true,
      "inputs": [
        {
          "name": "_owner",
          "type": "address"
        },
        {
          "name": "_spender",
          "type": "address"
        }
      ],
      "name": "allowance",
      "outputs": [
        {
          "name": "",
          "type": "uint256"
        }
      ],
      "payable": false,
      "stateMutability": "view",
      "type": "function"
    },
    {
      "constant": false,
      "inputs": [
        {
          "name": "_newOwner",
          "type": "address"
        }
      ],
      "name": "transferOwnership",
      "outputs": [],
      "payable": false,
      "stateMutability": "nonpayable",
      "type": "function"
    },
    {
      "inputs": [
        {
          "name": "_controller",
          "type": "address"
        }
      ],
      "payable": false,
      "stateMutability": "nonpayable",
      "type": "constructor"
    },
    {
      "anonymous": false,
      "inputs": [
        {
          "indexed": true,
          "name": "owner",
          "type": "address"
        },
        {
          "indexed": true,
          "name": "spender",
          "type": "address"
        },
        {
          "indexed": false,
          "name": "value",
          "type": "uint256"
        }
      ],
      "name": "Approval",
      "type": "event"
    },
    {
      "anonymous": false,
      "inputs": [
        {
          "indexed": true,
          "name": "from",
          "type": "address"
        },
        {
          "indexed": true,
          "name": "to",
          "type": "address"
        },
        {
          "indexed": false,
          "name": "value",
          "type": "uint256"
        }
      ],
      "name": "Transfer",
      "type": "event"
    },
    {
      "anonymous": false,
      "inputs": [
        {
          "indexed": true,
          "name": "previousOwner",
          "type": "address"
        }
      ],
      "name": "OwnershipRenounced",
      "type": "event"
    },
    {
      "anonymous": false,
      "inputs": [
        {
          "indexed": true,
          "name": "previousOwner",
          "type": "address"
        },
        {
          "indexed": true,
          "name": "newOwner",
          "type": "address"
        }
      ],
      "name": "OwnershipTransferred",
      "type": "event"
    },
    {
      "anonymous": false,
      "inputs": [
        {
          "indexed": false,
          "name": "controller",
          "type": "address"
        },
        {
          "indexed": false,
          "name": "updatedAt",
          "type": "uint256"
        }
      ],
      "name": "ControllerChanged",
      "type": "event"
    },
    {
      "constant": false,
      "inputs": [
        {
          "name": "_to",
          "type": "address"
        },
        {
          "name": "_value",
          "type": "uint256"
        }
      ],
      "name": "transfer",
      "outputs": [
        {
          "name": "",
          "type": "bool"
        }
      ],
      "payable": false,
      "stateMutability": "nonpayable",
      "type": "function"
    },
    {
      "constant": false,
      "inputs": [
        {
          "name": "_from",
          "type": "address"
        },
        {
          "name": "_to",
          "type": "address"
        },
        {
          "name": "_value",
          "type": "uint256"
        }
      ],
      "name": "transferFrom",
      "outputs": [
        {
          "name": "",
          "type": "bool"
        }
      ],
      "payable": false,
      "stateMutability": "nonpayable",
      "type": "function"
    },
    {
      "constant": true,
      "inputs": [],
      "name": "getController",
      "outputs": [
        {
          "name": "",
          "type": "address"
        }
      ],
      "payable": false,
      "stateMutability": "view",
      "type": "function"
    },
    {
      "constant": false,
      "inputs": [
        {
          "name": "_controller",
          "type": "address"
        }
      ],
      "name": "changeController",
      "outputs": [
        {
          "name": "",
          "type": "address"
        }
      ],
      "payable": false,
      "stateMutability": "nonpayable",
      "type": "function"
    }
  ],
  "bytecode": "0x608060405234801561001057600080fd5b50604051602080610cbe833981016040525160008054600160a060020a031916331790556100468164010000000061004d810204565b5050610164565b60008054600160a060020a0316331461006557600080fd5b600454600160a060020a038381169116141561010857604080517f08c379a000000000000000000000000000000000000000000000000000000000815260206004820152602160248201527f436f6e74726f6c6c65722073686f756c64206e6f74206265207468652073616d60448201527f6500000000000000000000000000000000000000000000000000000000000000606482015290519081900360840190fd5b60048054600160a060020a031916600160a060020a0384169081179091556040805191825242602083015280517f8cf1cbc25758c16f47e27029c8104e5be712c49e9baaf12c1fd697a91b4316809281900390910190a1919050565b610b4b806101736000396000f3006080604052600436106100c45763ffffffff7c0100000000000000000000000000000000000000000000000000000000600035041663095ea7b381146100c957806318160ddd1461010157806323b872dd146101285780633018205f146101525780633cebb8231461018357806366188463146101a457806370a08231146101c8578063715018a6146101e95780638da5cb5b14610200578063a9059cbb14610215578063d73dd62314610239578063dd62ed3e1461025d578063f2fde38b14610284575b600080fd5b3480156100d557600080fd5b506100ed600160a060020a03600435166024356102a5565b604080519115158252519081900360200190f35b34801561010d57600080fd5b5061011661030b565b60408051918252519081900360200190f35b34801561013457600080fd5b506100ed600160a060020a0360043581169060243516604435610311565b34801561015e57600080fd5b506101676103d0565b60408051600160a060020a039092168252519081900360200190f35b34801561018f57600080fd5b50610167600160a060020a03600435166103df565b3480156101b057600080fd5b506100ed600160a060020a0360043516602435610503565b3480156101d457600080fd5b50610116600160a060020a03600435166105f4565b3480156101f557600080fd5b506101fe61060f565b005b34801561020c57600080fd5b5061016761067b565b34801561022157600080fd5b506100ed600160a060020a036004351660243561068a565b34801561024557600080fd5b506100ed600160a060020a036004351660243561073e565b34801561026957600080fd5b50610116600160a060020a03600435811690602435166107d7565b34801561029057600080fd5b506101fe600160a060020a0360043516610802565b336000818152600360209081526040808320600160a060020a038716808552908352818420869055815186815291519394909390927f8c5be1e5ebec7d5bd14f71427d1e84f3dd0314c0f7b2291e5b200ac8c7c3b925928290030190a350600192915050565b60025490565b60048054604080517f97e2b9af000000000000000000000000000000000000000000000000000000008152600160a060020a038681169482019490945286841660248201529051600093909216916397e2b9af9160448082019260209290919082900301818787803b15801561038657600080fd5b505af115801561039a573d6000803e3d6000fd5b505050506040513d60208110156103b057600080fd5b505115156103bd57600080fd5b6103c8848484610825565b509392505050565b600454600160a060020a031690565b60008054600160a060020a031633146103f757600080fd5b600454600160a060020a038381169116141561049a57604080517f08c379a000000000000000000000000000000000000000000000000000000000815260206004820152602160248201527f436f6e74726f6c6c65722073686f756c64206e6f74206265207468652073616d60448201527f6500000000000000000000000000000000000000000000000000000000000000606482015290519081900360840190fd5b6004805473ffffffffffffffffffffffffffffffffffffffff1916600160a060020a0384169081179091556040805191825242602083015280517f8cf1cbc25758c16f47e27029c8104e5be712c49e9baaf12c1fd697a91b4316809281900390910190a1919050565b336000908152600360209081526040808320600160a060020a038616845290915281205480831061055757336000908152600360209081526040808320600160a060020a038816845290915281205561058c565b610567818463ffffffff61099c16565b336000908152600360209081526040808320600160a060020a03891684529091529020555b336000818152600360209081526040808320600160a060020a0389168085529083529281902054815190815290519293927f8c5be1e5ebec7d5bd14f71427d1e84f3dd0314c0f7b2291e5b200ac8c7c3b925929181900390910190a3600191505b5092915050565b600160a060020a031660009081526001602052604090205490565b600054600160a060020a0316331461062657600080fd5b60008054604051600160a060020a03909116917ff8df31144d9c2f0f6b59d69b8b98abd5459d07f2742c4df920b25aae33c6482091a26000805473ffffffffffffffffffffffffffffffffffffffff19169055565b600054600160a060020a031681565b60048054604080517f97e2b9af000000000000000000000000000000000000000000000000000000008152600160a060020a03868116948201949094523360248201529051600093909216916397e2b9af9160448082019260209290919082900301818787803b1580156106fd57600080fd5b505af1158015610711573d6000803e3d6000fd5b505050506040513d602081101561072757600080fd5b5051151561073457600080fd5b6105ed83836109ae565b336000908152600360209081526040808320600160a060020a0386168452909152812054610772908363ffffffff610a8f16565b336000818152600360209081526040808320600160a060020a0389168085529083529281902085905580519485525191937f8c5be1e5ebec7d5bd14f71427d1e84f3dd0314c0f7b2291e5b200ac8c7c3b925929081900390910190a350600192915050565b600160a060020a03918216600090815260036020908152604080832093909416825291909152205490565b600054600160a060020a0316331461081957600080fd5b61082281610aa2565b50565b600160a060020a03831660009081526001602052604081205482111561084a57600080fd5b600160a060020a038416600090815260036020908152604080832033845290915290205482111561087a57600080fd5b600160a060020a038316151561088f57600080fd5b600160a060020a0384166000908152600160205260409020546108b8908363ffffffff61099c16565b600160a060020a0380861660009081526001602052604080822093909355908516815220546108ed908363ffffffff610a8f16565b600160a060020a038085166000908152600160209081526040808320949094559187168152600382528281203382529091522054610931908363ffffffff61099c16565b600160a060020a03808616600081815260036020908152604080832033845282529182902094909455805186815290519287169391927fddf252ad1be2c89b69c2b068fc378daa952ba7f163c4a11628f55a4df523b3ef929181900390910190a35060019392505050565b6000828211156109a857fe5b50900390565b336000908152600160205260408120548211156109ca57600080fd5b600160a060020a03831615156109df57600080fd5b336000908152600160205260409020546109ff908363ffffffff61099c16565b3360009081526001602052604080822092909255600160a060020a03851681522054610a31908363ffffffff610a8f16565b600160a060020a0384166000818152600160209081526040918290209390935580518581529051919233927fddf252ad1be2c89b69c2b068fc378daa952ba7f163c4a11628f55a4df523b3ef9281900390910190a350600192915050565b81810182811015610a9c57fe5b92915050565b600160a060020a0381161515610ab757600080fd5b60008054604051600160a060020a03808516939216917f8be0079c531659141344cd1fd0a4f28419497f9722a3daafe3b4186f6b6457e091a36000805473ffffffffffffffffffffffffffffffffffffffff1916600160a060020a03929092169190911790555600a165627a7a723058200e7e15867818661db4f133a28e520fd0461e222660d16ac0ecbcc58db37a22760029",
  "source": "pragma solidity ^0.4.24;\n/*\n * @title: Verified Token\n * Implementation of transfer() and transferFrom() that checks if the receiver\n * has enlisted in the registries required by the token issuer/controller\n * Created on 2018-04-26, by Blockchain Labs, NZ\n */\nimport \"openzeppelin-solidity/contracts/token/ERC20/StandardToken.sol\";\nimport \"openzeppelin-solidity/contracts/ownership/Ownable.sol\";\nimport \"./interfaces/IController.sol\";\nimport \"./interfaces/IToken.sol\";\n\n\ncontract Token is IToken, Ownable, StandardToken {\n  IController private tokenController;\n\n  /*\n   * @dev: It requires to setup controller on deployment of the token contract\n   * @param _controller - address of Verified Token Controller contract\n   */\n  constructor(IController _controller) public {\n    changeController(_controller);\n  }\n\n  /*\n   * @dev: It calls standard transfer() function after checking if the transfer is allowed.\n   * @param _to  - address of recipient\n   * @param _value - the amount to transfer\n   */\n  function transfer(address _to, uint256 _value) public returns (bool) {\n    require(tokenController.isTransferAllowed(_to, msg.sender));\n    super.transfer(_to, _value);\n  }\n\n  /*\n   * @dev: It calls standard transferFrom() function after checking if the transfer is allowed.\n   * @param _from - address of sender\n   * @param _to  - address of recipient\n   * @param _value - the amount to transfer\n   */\n  function transferFrom(address _from, address _to, uint256 _value) public returns (bool) {\n    require(tokenController.isTransferAllowed(_to, _from));\n    super.transferFrom(_from, _to, _value);\n  }\n\n  /*\n   * @dev: It returns address of current Controller contract\n   */\n  function getController() public view returns (address) {\n    return address(tokenController);\n  }\n\n  /*\n   * @dev: Change the controller of the Token\n   */\n  function changeController(IController _controller) public onlyOwner returns (address) {\n    require(_controller != tokenController, \"Controller should not be the same\");\n    tokenController = IController(_controller);\n    emit ControllerChanged(_controller, now);\n  }\n}\n",
  "sourcePath": "/Users/pengliu/work/bankorus_sto/VerifiedToken-master/contracts/Token.sol",
  "compiler": {
    "name": "solc",
    "version": "0.4.24+commit.e67f0147.Emscripten.clang"
  },
  "schemaVersion": "3.0.0",
  "updatedAt": "2019-01-08T06:37:39.681Z",
  "devdoc": {
    "methods": {
      "allowance(address,address)": {
        "details": "Function to check the amount of tokens that an owner allowed to a spender.",
        "params": {
          "_owner": "address The address which owns the funds.",
          "_spender": "address The address which will spend the funds."
        },
        "return": "A uint256 specifying the amount of tokens still available for the spender."
      },
      "approve(address,uint256)": {
        "details": "Approve the passed address to spend the specified amount of tokens on behalf of msg.sender. Beware that changing an allowance with this method brings the risk that someone may use both the old and the new allowance by unfortunate transaction ordering. One possible solution to mitigate this race condition is to first reduce the spender's allowance to 0 and set the desired value afterwards: https://github.com/ethereum/EIPs/issues/20#issuecomment-263524729",
        "params": {
          "_spender": "The address which will spend the funds.",
          "_value": "The amount of tokens to be spent."
        }
      },
      "balanceOf(address)": {
        "details": "Gets the balance of the specified address.",
        "params": {
          "_owner": "The address to query the the balance of."
        },
        "return": "An uint256 representing the amount owned by the passed address."
      },
      "decreaseApproval(address,uint256)": {
        "details": "Decrease the amount of tokens that an owner allowed to a spender. approve should be called when allowed[_spender] == 0. To decrement allowed value is better to use this function to avoid 2 calls (and wait until the first transaction is mined) From MonolithDAO Token.sol",
        "params": {
          "_spender": "The address which will spend the funds.",
          "_subtractedValue": "The amount of tokens to decrease the allowance by."
        }
      },
      "increaseApproval(address,uint256)": {
        "details": "Increase the amount of tokens that an owner allowed to a spender. approve should be called when allowed[_spender] == 0. To increment allowed value is better to use this function to avoid 2 calls (and wait until the first transaction is mined) From MonolithDAO Token.sol",
        "params": {
          "_addedValue": "The amount of tokens to increase the allowance by.",
          "_spender": "The address which will spend the funds."
        }
      },
      "renounceOwnership()": {
        "details": "Allows the current owner to relinquish control of the contract."
      },
      "totalSupply()": {
        "details": "Total number of tokens in existence"
      },
      "transferOwnership(address)": {
        "details": "Allows the current owner to transfer control of the contract to a newOwner.",
        "params": {
          "_newOwner": "The address to transfer ownership to."
        }
      }
    }
  },
  "userdoc": {
    "methods": {
      "renounceOwnership()": {
        "notice": "Renouncing to ownership will leave the contract without an owner. It will not be possible to call the functions with the `onlyOwner` modifier anymore."
      }
    }
  }
}