{
  "contractName": "TokenMock",
  "abi": [
    {
      "constant": false,
      "inputs": [
        {
          "name": "_spender",
          "type": "address"
        },
        {
          "name": "_value",
          "type": "uint256"
        }
      ],
      "name": "approve",
      "outputs": [
        {
          "name": "",
          "type": "bool"
        }
      ],
      "payable": false,
      "stateMutability": "nonpayable",
      "type": "function"
    },
    {
      "constant": true,
      "inputs": [],
      "name": "totalSupply",
      "outputs": [
        {
          "name": "",
          "type": "uint256"
        }
      ],
      "payable": false,
      "stateMutability": "view",
      "type": "function"
    },
    {
      "constant": false,
      "inputs": [
        {
          "name": "_from",
          "type": "address"
        },
        {
          "name": "_to",
          "type": "address"
        },
        {
          "name": "_value",
          "type": "uint256"
        }
      ],
      "name": "transferFrom",
      "outputs": [
        {
          "name": "",
          "type": "bool"
        }
      ],
      "payable": false,
      "stateMutability": "nonpayable",
      "type": "function"
    },
    {
      "constant": true,
      "inputs": [],
      "name": "getController",
      "outputs": [
        {
          "name": "",
          "type": "address"
        }
      ],
      "payable": false,
      "stateMutability": "view",
      "type": "function"
    },
    {
      "constant": false,
      "inputs": [
        {
          "name": "_controller",
          "type": "address"
        }
      ],
      "name": "changeController",
      "outputs": [
        {
          "name": "",
          "type": "address"
        }
      ],
      "payable": false,
      "stateMutability": "nonpayable",
      "type": "function"
    },
    {
      "constant": false,
      "inputs": [
        {
          "name": "_spender",
          "type": "address"
        },
        {
          "name": "_subtractedValue",
          "type": "uint256"
        }
      ],
      "name": "decreaseApproval",
      "outputs": [
        {
          "name": "",
          "type": "bool"
        }
      ],
      "payable": false,
      "stateMutability": "nonpayable",
      "type": "function"
    },
    {
      "constant": true,
      "inputs": [
        {
          "name": "_owner",
          "type": "address"
        }
      ],
      "name": "balanceOf",
      "outputs": [
        {
          "name": "",
          "type": "uint256"
        }
      ],
      "payable": false,
      "stateMutability": "view",
      "type": "function"
    },
    {
      "constant": false,
      "inputs": [],
      "name": "renounceOwnership",
      "outputs": [],
      "payable": false,
      "stateMutability": "nonpayable",
      "type": "function"
    },
    {
      "constant": true,
      "inputs": [],
      "name": "owner",
      "outputs": [
        {
          "name": "",
          "type": "address"
        }
      ],
      "payable": false,
      "stateMutability": "view",
      "type": "function"
    },
    {
      "constant": false,
      "inputs": [
        {
          "name": "_to",
          "type": "address"
        },
        {
          "name": "_value",
          "type": "uint256"
        }
      ],
      "name": "transfer",
      "outputs": [
        {
          "name": "",
          "type": "bool"
        }
      ],
      "payable": false,
      "stateMutability": "nonpayable",
      "type": "function"
    },
    {
      "constant": false,
      "inputs": [
        {
          "name": "_spender",
          "type": "address"
        },
        {
          "name": "_addedValue",
          "type": "uint256"
        }
      ],
      "name": "increaseApproval",
      "outputs": [
        {
          "name": "",
          "type": "bool"
        }
      ],
      "payable": false,
      "stateMutability": "nonpayable",
      "type": "function"
    },
    {
      "constant": true,
      "inputs": [
        {
          "name": "_owner",
          "type": "address"
        },
        {
          "name": "_spender",
          "type": "address"
        }
      ],
      "name": "allowance",
      "outputs": [
        {
          "name": "",
          "type": "uint256"
        }
      ],
      "payable": false,
      "stateMutability": "view",
      "type": "function"
    },
    {
      "constant": false,
      "inputs": [
        {
          "name": "_newOwner",
          "type": "address"
        }
      ],
      "name": "transferOwnership",
      "outputs": [],
      "payable": false,
      "stateMutability": "nonpayable",
      "type": "function"
    },
    {
      "inputs": [
        {
          "name": "_controller",
          "type": "address"
        }
      ],
      "payable": false,
      "stateMutability": "nonpayable",
      "type": "constructor"
    },
    {
      "anonymous": false,
      "inputs": [
        {
          "indexed": true,
          "name": "owner",
          "type": "address"
        },
        {
          "indexed": true,
          "name": "spender",
          "type": "address"
        },
        {
          "indexed": false,
          "name": "value",
          "type": "uint256"
        }
      ],
      "name": "Approval",
      "type": "event"
    },
    {
      "anonymous": false,
      "inputs": [
        {
          "indexed": true,
          "name": "from",
          "type": "address"
        },
        {
          "indexed": true,
          "name": "to",
          "type": "address"
        },
        {
          "indexed": false,
          "name": "value",
          "type": "uint256"
        }
      ],
      "name": "Transfer",
      "type": "event"
    },
    {
      "anonymous": false,
      "inputs": [
        {
          "indexed": true,
          "name": "previousOwner",
          "type": "address"
        }
      ],
      "name": "OwnershipRenounced",
      "type": "event"
    },
    {
      "anonymous": false,
      "inputs": [
        {
          "indexed": true,
          "name": "previousOwner",
          "type": "address"
        },
        {
          "indexed": true,
          "name": "newOwner",
          "type": "address"
        }
      ],
      "name": "OwnershipTransferred",
      "type": "event"
    },
    {
      "anonymous": false,
      "inputs": [
        {
          "indexed": false,
          "name": "controller",
          "type": "address"
        },
        {
          "indexed": false,
          "name": "updatedAt",
          "type": "uint256"
        }
      ],
      "name": "ControllerChanged",
      "type": "event"
    },
    {
      "constant": false,
      "inputs": [
        {
          "name": "_address",
          "type": "address"
        },
        {
          "name": "_amount",
          "type": "uint256"
        }
      ],
      "name": "giveMeCoins",
      "outputs": [],
      "payable": false,
      "stateMutability": "nonpayable",
      "type": "function"
    }
  ],
  "bytecode": "0x608060405234801561001057600080fd5b50604051602080610d0b833981016040525160008054600160a060020a03191633179055806100478164010000000061004f810204565b505050610166565b60008054600160a060020a0316331461006757600080fd5b600454600160a060020a038381169116141561010a57604080517f08c379a000000000000000000000000000000000000000000000000000000000815260206004820152602160248201527f436f6e74726f6c6c65722073686f756c64206e6f74206265207468652073616d60448201527f6500000000000000000000000000000000000000000000000000000000000000606482015290519081900360840190fd5b60048054600160a060020a031916600160a060020a0384169081179091556040805191825242602083015280517f8cf1cbc25758c16f47e27029c8104e5be712c49e9baaf12c1fd697a91b4316809281900390910190a1919050565b610b96806101756000396000f3006080604052600436106100cf5763ffffffff7c0100000000000000000000000000000000000000000000000000000000600035041663095ea7b381146100d457806318160ddd1461010c57806323b872dd146101335780632e8443471461015d5780633018205f146101835780633cebb823146101b457806366188463146101d557806370a08231146101f9578063715018a61461021a5780638da5cb5b1461022f578063a9059cbb14610244578063d73dd62314610268578063dd62ed3e1461028c578063f2fde38b146102b3575b600080fd5b3480156100e057600080fd5b506100f8600160a060020a03600435166024356102d4565b604080519115158252519081900360200190f35b34801561011857600080fd5b5061012161033a565b60408051918252519081900360200190f35b34801561013f57600080fd5b506100f8600160a060020a0360043581169060243516604435610340565b34801561016957600080fd5b50610181600160a060020a03600435166024356103ff565b005b34801561018f57600080fd5b5061019861041b565b60408051600160a060020a039092168252519081900360200190f35b3480156101c057600080fd5b50610198600160a060020a036004351661042a565b3480156101e157600080fd5b506100f8600160a060020a036004351660243561054e565b34801561020557600080fd5b50610121600160a060020a036004351661063f565b34801561022657600080fd5b5061018161065a565b34801561023b57600080fd5b506101986106c6565b34801561025057600080fd5b506100f8600160a060020a03600435166024356106d5565b34801561027457600080fd5b506100f8600160a060020a0360043516602435610789565b34801561029857600080fd5b50610121600160a060020a0360043581169060243516610822565b3480156102bf57600080fd5b50610181600160a060020a036004351661084d565b336000818152600360209081526040808320600160a060020a038716808552908352818420869055815186815291519394909390927f8c5be1e5ebec7d5bd14f71427d1e84f3dd0314c0f7b2291e5b200ac8c7c3b925928290030190a350600192915050565b60025490565b60048054604080517f97e2b9af000000000000000000000000000000000000000000000000000000008152600160a060020a038681169482019490945286841660248201529051600093909216916397e2b9af9160448082019260209290919082900301818787803b1580156103b557600080fd5b505af11580156103c9573d6000803e3d6000fd5b505050506040513d60208110156103df57600080fd5b505115156103ec57600080fd5b6103f7848484610870565b509392505050565b600160a060020a03909116600090815260016020526040902055565b600454600160a060020a031690565b60008054600160a060020a0316331461044257600080fd5b600454600160a060020a03838116911614156104e557604080517f08c379a000000000000000000000000000000000000000000000000000000000815260206004820152602160248201527f436f6e74726f6c6c65722073686f756c64206e6f74206265207468652073616d60448201527f6500000000000000000000000000000000000000000000000000000000000000606482015290519081900360840190fd5b6004805473ffffffffffffffffffffffffffffffffffffffff1916600160a060020a0384169081179091556040805191825242602083015280517f8cf1cbc25758c16f47e27029c8104e5be712c49e9baaf12c1fd697a91b4316809281900390910190a1919050565b336000908152600360209081526040808320600160a060020a03861684529091528120548083106105a257336000908152600360209081526040808320600160a060020a03881684529091528120556105d7565b6105b2818463ffffffff6109e716565b336000908152600360209081526040808320600160a060020a03891684529091529020555b336000818152600360209081526040808320600160a060020a0389168085529083529281902054815190815290519293927f8c5be1e5ebec7d5bd14f71427d1e84f3dd0314c0f7b2291e5b200ac8c7c3b925929181900390910190a3600191505b5092915050565b600160a060020a031660009081526001602052604090205490565b600054600160a060020a0316331461067157600080fd5b60008054604051600160a060020a03909116917ff8df31144d9c2f0f6b59d69b8b98abd5459d07f2742c4df920b25aae33c6482091a26000805473ffffffffffffffffffffffffffffffffffffffff19169055565b600054600160a060020a031681565b60048054604080517f97e2b9af000000000000000000000000000000000000000000000000000000008152600160a060020a03868116948201949094523360248201529051600093909216916397e2b9af9160448082019260209290919082900301818787803b15801561074857600080fd5b505af115801561075c573d6000803e3d6000fd5b505050506040513d602081101561077257600080fd5b5051151561077f57600080fd5b61063883836109f9565b336000908152600360209081526040808320600160a060020a03861684529091528120546107bd908363ffffffff610ada16565b336000818152600360209081526040808320600160a060020a0389168085529083529281902085905580519485525191937f8c5be1e5ebec7d5bd14f71427d1e84f3dd0314c0f7b2291e5b200ac8c7c3b925929081900390910190a350600192915050565b600160a060020a03918216600090815260036020908152604080832093909416825291909152205490565b600054600160a060020a0316331461086457600080fd5b61086d81610aed565b50565b600160a060020a03831660009081526001602052604081205482111561089557600080fd5b600160a060020a03841660009081526003602090815260408083203384529091529020548211156108c557600080fd5b600160a060020a03831615156108da57600080fd5b600160a060020a038416600090815260016020526040902054610903908363ffffffff6109e716565b600160a060020a038086166000908152600160205260408082209390935590851681522054610938908363ffffffff610ada16565b600160a060020a03808516600090815260016020908152604080832094909455918716815260038252828120338252909152205461097c908363ffffffff6109e716565b600160a060020a03808616600081815260036020908152604080832033845282529182902094909455805186815290519287169391927fddf252ad1be2c89b69c2b068fc378daa952ba7f163c4a11628f55a4df523b3ef929181900390910190a35060019392505050565b6000828211156109f357fe5b50900390565b33600090815260016020526040812054821115610a1557600080fd5b600160a060020a0383161515610a2a57600080fd5b33600090815260016020526040902054610a4a908363ffffffff6109e716565b3360009081526001602052604080822092909255600160a060020a03851681522054610a7c908363ffffffff610ada16565b600160a060020a0384166000818152600160209081526040918290209390935580518581529051919233927fddf252ad1be2c89b69c2b068fc378daa952ba7f163c4a11628f55a4df523b3ef9281900390910190a350600192915050565b81810182811015610ae757fe5b92915050565b600160a060020a0381161515610b0257600080fd5b60008054604051600160a060020a03808516939216917f8be0079c531659141344cd1fd0a4f28419497f9722a3daafe3b4186f6b6457e091a36000805473ffffffffffffffffffffffffffffffffffffffff1916600160a060020a03929092169190911790555600a165627a7a72305820772eb769afb451bd652de81880726012480f5a2e95de6195901e1f3c3862aba00029",
  "source": "pragma solidity ^0.4.24;\n\nimport './../Token.sol';\n\ncontract TokenMock is Token {\n\n    constructor(IController _controller) public Token(_controller) {}\n\n    function giveMeCoins(address _address, uint256 _amount) public {\n        balances[_address] = _amount;\n    }\n}\n",
  "sourcePath": "/Users/pengliu/work/bankorus_sto/VerifiedToken-master/contracts/mocks/TokenMock.sol",
  "compiler": {
    "name": "solc",
    "version": "0.4.24+commit.e67f0147.Emscripten.clang"
  },
  "schemaVersion": "3.0.0",
  "updatedAt": "2019-01-08T06:37:39.683Z",
  "devdoc": {
    "methods": {
      "allowance(address,address)": {
        "details": "Function to check the amount of tokens that an owner allowed to a spender.",
        "params": {
          "_owner": "address The address which owns the funds.",
          "_spender": "address The address which will spend the funds."
        },
        "return": "A uint256 specifying the amount of tokens still available for the spender."
      },
      "approve(address,uint256)": {
        "details": "Approve the passed address to spend the specified amount of tokens on behalf of msg.sender. Beware that changing an allowance with this method brings the risk that someone may use both the old and the new allowance by unfortunate transaction ordering. One possible solution to mitigate this race condition is to first reduce the spender's allowance to 0 and set the desired value afterwards: https://github.com/ethereum/EIPs/issues/20#issuecomment-263524729",
        "params": {
          "_spender": "The address which will spend the funds.",
          "_value": "The amount of tokens to be spent."
        }
      },
      "balanceOf(address)": {
        "details": "Gets the balance of the specified address.",
        "params": {
          "_owner": "The address to query the the balance of."
        },
        "return": "An uint256 representing the amount owned by the passed address."
      },
      "decreaseApproval(address,uint256)": {
        "details": "Decrease the amount of tokens that an owner allowed to a spender. approve should be called when allowed[_spender] == 0. To decrement allowed value is better to use this function to avoid 2 calls (and wait until the first transaction is mined) From MonolithDAO Token.sol",
        "params": {
          "_spender": "The address which will spend the funds.",
          "_subtractedValue": "The amount of tokens to decrease the allowance by."
        }
      },
      "increaseApproval(address,uint256)": {
        "details": "Increase the amount of tokens that an owner allowed to a spender. approve should be called when allowed[_spender] == 0. To increment allowed value is better to use this function to avoid 2 calls (and wait until the first transaction is mined) From MonolithDAO Token.sol",
        "params": {
          "_addedValue": "The amount of tokens to increase the allowance by.",
          "_spender": "The address which will spend the funds."
        }
      },
      "renounceOwnership()": {
        "details": "Allows the current owner to relinquish control of the contract."
      },
      "totalSupply()": {
        "details": "Total number of tokens in existence"
      },
      "transferOwnership(address)": {
        "details": "Allows the current owner to transfer control of the contract to a newOwner.",
        "params": {
          "_newOwner": "The address to transfer ownership to."
        }
      }
    }
  },
  "userdoc": {
    "methods": {
      "renounceOwnership()": {
        "notice": "Renouncing to ownership will leave the contract without an owner. It will not be possible to call the functions with the `onlyOwner` modifier anymore."
      }
    }
  }
}